{
    "contracts/Anon.sol": {
        "Anon": {
            "abi": [
                {
                    "inputs": [
                        {
                            "internalType": "address",
                            "name": "_verifier",
                            "type": "address"
                        }
                    ],
                    "stateMutability": "nonpayable",
                    "type": "constructor"
                },
                {
                    "anonymous": false,
                    "inputs": [
                        {
                            "indexed": true,
                            "internalType": "address",
                            "name": "user",
                            "type": "address"
                        },
                        {
                            "indexed": false,
                            "internalType": "uint256",
                            "name": "commitment",
                            "type": "uint256"
                        }
                    ],
                    "name": "Committed",
                    "type": "event"
                },
                {
                    "anonymous": false,
                    "inputs": [
                        {
                            "indexed": true,
                            "internalType": "address",
                            "name": "user",
                            "type": "address"
                        }
                    ],
                    "name": "Proved",
                    "type": "event"
                },
                {
                    "inputs": [
                        {
                            "internalType": "uint256",
                            "name": "commitment",
                            "type": "uint256"
                        }
                    ],
                    "name": "commit",
                    "outputs": [],
                    "stateMutability": "nonpayable",
                    "type": "function"
                },
                {
                    "inputs": [
                        {
                            "internalType": "address",
                            "name": "",
                            "type": "address"
                        }
                    ],
                    "name": "commitments",
                    "outputs": [
                        {
                            "internalType": "uint256",
                            "name": "",
                            "type": "uint256"
                        }
                    ],
                    "stateMutability": "view",
                    "type": "function"
                },
                {
                    "inputs": [
                        {
                            "internalType": "uint256[2]",
                            "name": "a",
                            "type": "uint256[2]"
                        },
                        {
                            "internalType": "uint256[2][2]",
                            "name": "b",
                            "type": "uint256[2][2]"
                        },
                        {
                            "internalType": "uint256[2]",
                            "name": "c",
                            "type": "uint256[2]"
                        },
                        {
                            "internalType": "uint256[1]",
                            "name": "input",
                            "type": "uint256[1]"
                        }
                    ],
                    "name": "prove",
                    "outputs": [],
                    "stateMutability": "payable",
                    "type": "function"
                },
                {
                    "inputs": [],
                    "name": "verifier",
                    "outputs": [
                        {
                            "internalType": "contract IVerifier",
                            "name": "",
                            "type": "address"
                        }
                    ],
                    "stateMutability": "view",
                    "type": "function"
                }
            ],
            "evm": {
                "assembly": "// RO data = 0/0 bytes\n// RW data = 116/65728 bytes\n// Stack size = 32768 bytes\n\n// Instructions = 2971\n// Code size = 10158 bytes\n\n      : @0 (gas: 7)\n     0: sp = sp + 0xffffffffffffffe8\n     3: u64 [sp + 0x10] = ra\n     6: u64 [sp + 0x8] = s0\n     9: u64 [sp] = s1\n    11: s1 = 0x20070\n    16: s0 = i32 [0x20070]\n    21: jump @3 if s0 == 0\n      : @1 (gas: 5)\n    24: a0 = 0x300a0\n    29: i32 a0 = a0 + 0\n    31: i32 a1 = s1 + 0\n    33: ecalli 6 // 'get_immutable_data'\n    35: fallthrough\n      : @2 (gas: 3)\n    36: a0 = i32 [0x20070]\n    41: u32 [0x20070] = 0\n    46: jump @4 if a0 <u s0\n      : @3 (gas: 5)\n    49: ra = u64 [sp + 0x10]\n    52: s0 = u64 [sp + 0x8]\n    55: s1 = u64 [sp]\n    57: sp = sp + 0x18\n    60: ret\n      : @4 (gas: 1)\n    62: trap\n      : @5 (gas: 2)\n    63: a1 = i32 [0x20070]\n    68: jump @43 if a1 == 0\n      : @6 (gas: 4)\n    72: a0 = 0x300a0\n    77: i32 a0 = a0 + 0\n    79: ecalli 13 // 'set_immutable_data'\n    81: jump @43\n      : @7 (gas: 8)\n    84: sp = sp + 0xfffffffffffffff0\n    87: u64 [sp + 0x8] = ra\n    90: u64 [sp] = s0\n    92: a2 = a1\n    94: s0 = a0\n    96: a1 = 0x20\n    99: a0 = a2\n   101: ra = 2, jump @15\n      : @8 [@dyn 1] (gas: 100)\n   106: a1 = u8 [a0 + 0x1]\n   109: a2 = u8 [a0]\n   111: a3 = u8 [a0 + 0x2]\n   114: a4 = u8 [a0 + 0x3]\n   117: a1 = a1 << 0x8\n   120: a1 = a1 | a2\n   123: a3 = a3 << 0x10\n   126: a4 = a4 << 0x18\n   129: a3 = a3 | a4\n   132: a1 = a1 | a3\n   135: a2 = u8 [a0 + 0x5]\n   138: a3 = u8 [a0 + 0x4]\n   141: a4 = u8 [a0 + 0x6]\n   144: a5 = u8 [a0 + 0x7]\n   147: a2 = a2 << 0x8\n   150: a2 = a2 | a3\n   153: a4 = a4 << 0x10\n   156: a5 = a5 << 0x18\n   159: a4 = a4 | a5\n   162: a2 = a2 | a4\n   165: a2 = a2 << 0x20\n   168: t0 = a2 | a1\n   171: a2 = u8 [a0 + 0x9]\n   174: a3 = u8 [a0 + 0x8]\n   177: a4 = u8 [a0 + 0xa]\n   180: a5 = u8 [a0 + 0xb]\n   183: a2 = a2 << 0x8\n   186: a2 = a2 | a3\n   189: a4 = a4 << 0x10\n   192: a5 = a5 << 0x18\n   195: a4 = a4 | a5\n   198: a2 = a2 | a4\n   201: a3 = u8 [a0 + 0xd]\n   204: a4 = u8 [a0 + 0xc]\n   207: a5 = u8 [a0 + 0xe]\n   210: a1 = u8 [a0 + 0xf]\n   213: a3 = a3 << 0x8\n   216: a3 = a3 | a4\n   219: a5 = a5 << 0x10\n   222: a1 = a1 << 0x18\n   225: a1 = a1 | a5\n   228: a1 = a1 | a3\n   231: a1 = a1 << 0x20\n   234: t1 = a1 | a2\n   237: a1 = u8 [a0 + 0x11]\n   240: a3 = u8 [a0 + 0x10]\n   243: a4 = u8 [a0 + 0x12]\n   246: a5 = u8 [a0 + 0x13]\n   249: a1 = a1 << 0x8\n   252: a1 = a1 | a3\n   255: a4 = a4 << 0x10\n   258: a5 = a5 << 0x18\n   261: a4 = a4 | a5\n   264: a1 = a1 | a4\n   267: a3 = u8 [a0 + 0x15]\n   270: a4 = u8 [a0 + 0x14]\n   273: a5 = u8 [a0 + 0x16]\n   276: a2 = u8 [a0 + 0x17]\n   279: a3 = a3 << 0x8\n   282: a3 = a3 | a4\n   285: a5 = a5 << 0x10\n   288: a2 = a2 << 0x18\n   291: a2 = a2 | a5\n   294: a2 = a2 | a3\n   297: a2 = a2 << 0x20\n   300: a3 = a2 | a1\n   303: a1 = u8 [a0 + 0x19]\n   306: a2 = u8 [a0 + 0x18]\n   309: a4 = u8 [a0 + 0x1a]\n   312: a5 = u8 [a0 + 0x1b]\n   315: a1 = a1 << 0x8\n   318: a1 = a1 | a2\n   321: a4 = a4 << 0x10\n   324: a5 = a5 << 0x18\n   327: a4 = a4 | a5\n   330: a1 = a1 | a4\n   333: a2 = u8 [a0 + 0x1d]\n   336: a4 = u8 [a0 + 0x1c]\n   339: a5 = u8 [a0 + 0x1e]\n   342: a0 = u8 [a0 + 0x1f]\n   345: a2 = a2 << 0x8\n   348: a2 = a2 | a4\n   351: a5 = a5 << 0x10\n   354: a0 = a0 << 0x18\n   357: a0 = a0 | a5\n   360: a0 = a0 | a2\n   363: a0 = a0 << 0x20\n   366: a0 = a0 | a1\n   369: a0 = reverse a0\n   371: a1 = reverse a3\n   373: a2 = reverse t1\n   375: a3 = reverse t0\n   377: u64 [s0 + 0x18] = a3\n   380: u64 [s0 + 0x10] = a2\n   383: u64 [s0 + 0x8] = a1\n   386: u64 [s0] = a0\n   388: ra = u64 [sp + 0x8]\n   391: s0 = u64 [sp]\n   393: sp = sp + 0x10\n   396: ret\n      : @9 (gas: 12)\n   398: sp = sp + 0xffffffffffffffd8\n   401: u64 [sp + 0x20] = ra\n   404: u64 [sp + 0x18] = s0\n   407: u64 [sp + 0x10] = s1\n   410: a2 = u64 [a1]\n   412: u64 [sp + 0x8] = a2\n   415: a2 = u64 [a1 + 0x8]\n   418: u64 [sp] = a2\n   420: s0 = u64 [a1 + 0x10]\n   423: s1 = u64 [a1 + 0x18]\n   426: a1 = 0x20\n   429: ra = 4, jump @15\n      : @10 [@dyn 2] (gas: 71)\n   434: a1 = reverse s1\n   436: a2 = reverse s0\n   438: a3 = u64 [sp]\n   440: a3 = reverse a3\n   442: a4 = u64 [sp + 0x8]\n   445: a4 = reverse a4\n   447: u8 [a0 + 0x18] = a4\n   450: u8 [a0 + 0x10] = a3\n   453: u8 [a0 + 0x8] = a2\n   456: u8 [a0] = a1\n   458: a5 = a4 >> 0x38\n   461: u8 [a0 + 0x1f] = a5\n   464: a5 = a4 >> 0x30\n   467: u8 [a0 + 0x1e] = a5\n   470: a5 = a4 >> 0x28\n   473: u8 [a0 + 0x1d] = a5\n   476: a5 = a4 >> 0x20\n   479: u8 [a0 + 0x1c] = a5\n   482: a5 = a4 >> 0x18\n   485: u8 [a0 + 0x1b] = a5\n   488: a5 = a4 >> 0x10\n   491: u8 [a0 + 0x1a] = a5\n   494: a4 = a4 >> 0x8\n   497: u8 [a0 + 0x19] = a4\n   500: a4 = a3 >> 0x38\n   503: u8 [a0 + 0x17] = a4\n   506: a4 = a3 >> 0x30\n   509: u8 [a0 + 0x16] = a4\n   512: a4 = a3 >> 0x28\n   515: u8 [a0 + 0x15] = a4\n   518: a4 = a3 >> 0x20\n   521: u8 [a0 + 0x14] = a4\n   524: a4 = a3 >> 0x18\n   527: u8 [a0 + 0x13] = a4\n   530: a4 = a3 >> 0x10\n   533: u8 [a0 + 0x12] = a4\n   536: a3 = a3 >> 0x8\n   539: u8 [a0 + 0x11] = a3\n   542: a3 = a2 >> 0x38\n   545: u8 [a0 + 0xf] = a3\n   548: a3 = a2 >> 0x30\n   551: u8 [a0 + 0xe] = a3\n   554: a3 = a2 >> 0x28\n   557: u8 [a0 + 0xd] = a3\n   560: a3 = a2 >> 0x20\n   563: u8 [a0 + 0xc] = a3\n   566: a3 = a2 >> 0x18\n   569: u8 [a0 + 0xb] = a3\n   572: a3 = a2 >> 0x10\n   575: u8 [a0 + 0xa] = a3\n   578: a2 = a2 >> 0x8\n   581: u8 [a0 + 0x9] = a2\n   584: a2 = a1 >> 0x38\n   587: u8 [a0 + 0x7] = a2\n   590: a2 = a1 >> 0x30\n   593: u8 [a0 + 0x6] = a2\n   596: a2 = a1 >> 0x28\n   599: u8 [a0 + 0x5] = a2\n   602: a2 = a1 >> 0x20\n   605: u8 [a0 + 0x4] = a2\n   608: a2 = a1 >> 0x18\n   611: u8 [a0 + 0x3] = a2\n   614: a2 = a1 >> 0x10\n   617: u8 [a0 + 0x2] = a2\n   620: a1 = a1 >> 0x8\n   623: u8 [a0 + 0x1] = a1\n   626: ra = u64 [sp + 0x20]\n   629: s0 = u64 [sp + 0x18]\n   632: s1 = u64 [sp + 0x10]\n   635: sp = sp + 0x28\n   638: ret\n      : @11 (gas: 48)\n   640: sp = sp + 0xffffffffffffffa0\n   643: u64 [sp + 0x58] = ra\n   646: u64 [sp + 0x50] = s0\n   649: u64 [sp + 0x48] = s1\n   652: s0 = sp + 0x60\n   655: sp = sp & 0xffffffffffffffe0\n   658: s1 = a0\n   660: a0 = u64 [a1 + 0x18]\n   663: a2 = u64 [a1 + 0x10]\n   666: a3 = u64 [a1 + 0x8]\n   669: a1 = u64 [a1]\n   671: a0 = reverse a0\n   673: a2 = reverse a2\n   675: a3 = reverse a3\n   677: a1 = reverse a1\n   679: u64 [sp + 0x18] = a1\n   682: u64 [sp + 0x10] = a3\n   685: u64 [sp + 0x8] = a2\n   688: u64 [sp] = a0\n   690: u64 [sp + 56] = 0\n   693: u64 [sp + 48] = 0\n   696: u64 [sp + 40] = 0\n   699: u64 [sp + 32] = 0\n   702: u32 [sp + 64] = 0x20\n   706: i32 a1 = sp + 0\n   708: i32 a3 = sp + 0x20\n   711: i32 a4 = sp + 0x40\n   714: a2 = 0xffffffffffffffff\n   717: a0 = 0\n   719: ecalli 7 // 'get_storage'\n   721: a0 = u64 [sp + 0x38]\n   724: a1 = u64 [sp + 0x30]\n   727: a2 = u64 [sp + 0x28]\n   730: a3 = u64 [sp + 0x20]\n   733: a0 = reverse a0\n   735: a1 = reverse a1\n   737: a2 = reverse a2\n   739: a3 = reverse a3\n   741: u64 [s1 + 0x18] = a3\n   744: u64 [s1 + 0x10] = a2\n   747: u64 [s1 + 0x8] = a1\n   750: u64 [s1] = a0\n   752: sp = s0 + 0xffffffffffffffa0\n   755: ra = u64 [sp + 0x58]\n   758: s0 = u64 [sp + 0x50]\n   761: s1 = u64 [sp + 0x48]\n   764: sp = sp + 0x60\n   767: ret\n      : @12 (gas: 40)\n   769: sp = sp + 0xffffffffffffffa0\n   772: u64 [sp + 0x58] = ra\n   775: u64 [sp + 0x50] = s0\n   778: s0 = sp + 0x60\n   781: sp = sp & 0xffffffffffffffe0\n   784: t0 = u64 [a0]\n   786: a3 = u64 [a0 + 0x8]\n   789: a4 = u64 [a0 + 0x10]\n   792: a0 = u64 [a0 + 0x18]\n   795: t1 = u64 [a1]\n   797: a2 = u64 [a1 + 0x8]\n   800: a5 = u64 [a1 + 0x10]\n   803: a1 = u64 [a1 + 0x18]\n   806: t2 = reverse a0\n   808: a4 = reverse a4\n   810: a3 = reverse a3\n   812: a0 = reverse t0\n   814: t0 = reverse a1\n   816: a5 = reverse a5\n   818: a2 = reverse a2\n   820: a1 = reverse t1\n   822: u64 [sp + 0x18] = a0\n   825: u64 [sp + 0x10] = a3\n   828: u64 [sp + 0x8] = a4\n   831: u64 [sp] = t2\n   833: u64 [sp + 0x38] = a1\n   836: u64 [sp + 0x30] = a2\n   839: u64 [sp + 0x28] = a5\n   842: u64 [sp + 0x20] = t0\n   845: i32 a1 = sp + 0\n   847: i32 a3 = sp + 0x20\n   850: a2 = 0xffffffffffffffff\n   853: a4 = 0x20\n   856: a0 = 0\n   858: ecalli 14 // 'set_storage'\n   860: sp = s0 + 0xffffffffffffffa0\n   863: ra = u64 [sp + 0x58]\n   866: s0 = u64 [sp + 0x50]\n   869: sp = sp + 0x60\n   872: ret\n      : @13 (gas: 24)\n   874: sp = sp + 0xffffffffffffff60\n   878: u64 [sp + 0x98] = ra\n   882: u64 [sp + 0x90] = s0\n   886: u64 [sp + 0x88] = s1\n   890: s0 = sp + 0xa0\n   894: sp = sp & 0xffffffffffffffe0\n   897: a4 = u64 [a3]\n   899: u64 [sp + 0x38] = a4\n   902: a4 = u64 [a3 + 0x8]\n   905: u64 [sp + 0x30] = a4\n   908: a4 = u64 [a3 + 0x10]\n   911: u64 [sp + 0x28] = a4\n   914: a3 = u64 [a3 + 0x18]\n   917: u64 [sp + 0x20] = a3\n   920: a3 = u64 [a2]\n   922: u64 [sp + 0x18] = a3\n   925: a3 = u64 [a2 + 0x8]\n   928: u64 [sp + 0x10] = a3\n   931: a3 = u64 [a2 + 0x10]\n   934: u64 [sp + 0x8] = a3\n   937: a2 = u64 [a2 + 0x18]\n   940: u64 [sp] = a2\n   942: s1 = a1\n   944: ra = 6, jump @15\n      : @14 [@dyn 3] (gas: 35)\n   948: a1 = u64 [sp]\n   950: a1 = reverse a1\n   952: a2 = u64 [sp + 0x8]\n   955: a2 = reverse a2\n   957: a3 = u64 [sp + 0x10]\n   960: a3 = reverse a3\n   962: a4 = u64 [sp + 0x18]\n   965: a4 = reverse a4\n   967: u64 [sp + 0x58] = a4\n   970: u64 [sp + 0x50] = a3\n   973: u64 [sp + 0x48] = a2\n   976: u64 [sp + 0x40] = a1\n   979: a1 = u64 [sp + 0x20]\n   982: a1 = reverse a1\n   984: a2 = u64 [sp + 0x28]\n   987: a2 = reverse a2\n   989: a3 = u64 [sp + 0x30]\n   992: a3 = reverse a3\n   994: a4 = u64 [sp + 0x38]\n   997: a4 = reverse a4\n   999: u64 [sp + 0x78] = a4\n  1002: u64 [sp + 0x70] = a3\n  1005: u64 [sp + 0x68] = a2\n  1008: u64 [sp + 0x60] = a1\n  1011: i32 a2 = a0 + 0\n  1013: i32 a3 = s1 + 0\n  1015: i32 a0 = sp + 0x40\n  1018: a1 = 0x2\n  1021: ecalli 5 // 'deposit_event'\n  1023: sp = s0 + 0xffffffffffffff60\n  1027: ra = u64 [sp + 0x98]\n  1031: s0 = u64 [sp + 0x90]\n  1035: s1 = u64 [sp + 0x88]\n  1039: sp = sp + 0xa0\n  1043: ret\n      : @15 (gas: 2)\n  1045: i32 a2 = a0 >> 0x10\n  1048: jump @20 if a2 != 0\n      : @16 (gas: 4)\n  1051: a1 = a1 + a0\n  1054: i32 a1 = a1 + 0x1f\n  1057: a1 = a1 & 0xffffffffffffffe0\n  1060: jump @20 if a1 >u 65536\n      : @17 (gas: 3)\n  1066: a2 = 0x20078\n  1071: a3 = i32 [0x20078]\n  1076: jump @19 if a3 >=u a1\n      : @18 (gas: 2)\n  1079: u32 [0x20078] = a1\n  1084: fallthrough\n      : @19 (gas: 4)\n  1085: a1 = 0x20080\n  1090: i32 a0 = a0 + 0\n  1092: a0 = a0 + a1\n  1095: ret\n      : @20 (gas: 1)\n  1097: trap\n      : @21 (gas: 6)\n  1098: sp = sp + 0xfffffffffffffff0\n  1101: u64 [sp + 0x8] = ra\n  1104: u64 [sp] = s0\n  1106: s0 = a0 & 0x1\n  1109: ecalli 3 // 'call_data_size'\n  1111: fallthrough\n      : @22 (gas: 2)\n  1112: u32 [0x20074] = a0\n  1117: jump @24 if s0 == 0\n      : @23 (gas: 1)\n  1120: ra = 8, jump @25\n      : @24 [@dyn 4] (gas: 1)\n  1124: ra = 10, jump @46\n      : @25 [@dyn 5] (gas: 13)\n  1129: sp = sp + 0xffffffffffffff20\n  1133: u64 [sp + 0xd8] = ra\n  1137: u64 [sp + 0xd0] = s0\n  1141: u64 [sp + 0xc8] = s1\n  1145: s0 = sp + 0xe0\n  1149: sp = sp & 0xffffffffffffffe0\n  1152: u64 [sp + 184] = 0\n  1156: u64 [sp + 176] = 0\n  1160: u64 [sp + 168] = 0\n  1164: u64 [sp + 160] = 0\n  1168: i32 a0 = sp + 0xa0\n  1172: ecalli 15 // 'value_transferred'\n  1174: fallthrough\n      : @26 (gas: 8)\n  1175: a0 = u64 [sp + 0xb0]\n  1179: a1 = u64 [sp + 0xb8]\n  1183: a2 = u64 [sp + 0xa8]\n  1187: a3 = u64 [sp + 0xa0]\n  1191: a1 = a1 | a2\n  1194: a0 = a0 | a3\n  1197: a0 = a0 | a1\n  1200: jump @37 if a0 != 0\n      : @27 (gas: 15)\n  1204: s1 = i32 [0x20074]\n  1209: a0 = s1 << 0x20\n  1212: a0 = a0 >> 0x20\n  1215: a0 = a0 + 0x1f\n  1218: a0 = a0 & 0xffffffffffffffe0\n  1221: a1 = a0 + 0xa0\n  1225: a0 = a1 <u a0\n  1228: u64 [sp + 0x80] = a1\n  1232: u64 [sp + 0x88] = a0\n  1236: a0 = 0 if a0 != 0\n  1238: u64 [sp + 0x90] = a0\n  1242: a0 = 0x40\n  1245: a1 = sp + 0x80\n  1249: u64 [sp + 152] = 0\n  1253: ra = 12, jump @9\n      : @28 [@dyn 6] (gas: 3)\n  1258: a0 = 0xa0\n  1262: a1 = s1\n  1264: ra = 14, jump @15\n      : @29 [@dyn 7] (gas: 5)\n  1269: i32 a0 = a0 + 0\n  1271: a1 = s1\n  1273: a2 = 0\n  1275: ecalli 1 // 'call_data_copy'\n  1277: fallthrough\n      : @30 (gas: 1)\n  1278: jump @38 if s1 <=u 31\n      : @31 (gas: 3)\n  1283: a0 = sp + 0x60\n  1286: a1 = 0xa0\n  1290: ra = 16, jump @7\n      : @32 [@dyn 8] (gas: 10)\n  1295: a0 = u64 [sp + 0x70]\n  1298: a2 = u64 [sp + 0x78]\n  1301: a1 = 0x100000000\n  1311: a1 = a1 ^ a0\n  1314: a1 = a1 | a2\n  1317: a3 = a0 >> 0x20\n  1320: a3 = a3 <u 0x1\n  1323: a3 = 0 if a2 != 0\n  1325: a3 = 0 if a1 == 0\n  1327: jump @39 if a3 == 0\n      : @33 (gas: 9)\n  1330: a1 = u64 [sp + 0x68]\n  1333: a3 = u64 [sp + 0x60]\n  1336: u64 [sp + 0x40] = a3\n  1339: u64 [sp + 0x48] = a1\n  1342: u64 [sp + 0x50] = a0\n  1345: a0 = 0x80\n  1349: a1 = sp + 0x40\n  1352: u64 [sp + 0x58] = a2\n  1355: ra = 18, jump @9\n      : @34 [@dyn 9] (gas: 3)\n  1360: a0 = sp + 0x20\n  1363: a1 = 0x40\n  1366: ra = 20, jump @7\n      : @35 [@dyn 10] (gas: 12)\n  1371: a0 = u64 [sp + 0x38]\n  1374: a1 = u64 [sp + 0x30]\n  1377: a2 = u64 [sp + 0x28]\n  1380: s1 = u64 [sp + 0x20]\n  1383: a0 = a0 | a2\n  1386: a2 = s1 | a1\n  1389: a2 = a2 | a0\n  1392: a2 = a2 >> 0x20\n  1395: a0 = a0 | a1\n  1398: a0 = a0 << 0x20\n  1401: a0 = a0 | a2\n  1404: jump @40 if a0 == 0\n      : @36 (gas: 1)\n  1407: trap\n      : @37 (gas: 4)\n  1408: a1 = 0x20080\n  1413: i32 a1 = a1 + 0\n  1415: a0 = 0x1\n  1418: jump @45\n      : @38 (gas: 4)\n  1420: a1 = 0x20080\n  1425: i32 a1 = a1 + 0\n  1427: a0 = 0x1\n  1430: jump @45\n      : @39 (gas: 4)\n  1432: a1 = 0x20080\n  1437: i32 a1 = a1 + 0\n  1439: a0 = 0x1\n  1442: jump @45\n      : @40 (gas: 3)\n  1444: a0 = s1\n  1446: a1 = 0\n  1448: ra = 22, jump @15\n      : @41 [@dyn 11] (gas: 7)\n  1453: i32 a0 = a0 + 0\n  1455: a1 = 0\n  1457: a2 = 0\n  1459: ecalli 1 // 'call_data_copy'\n  1461: a0 = sp\n  1463: a1 = 0x80\n  1467: ra = 24, jump @7\n      : @42 [@dyn 12] (gas: 9)\n  1472: a0 = u64 [sp + 0x18]\n  1475: a2 = u64 [sp + 0x10]\n  1478: a3 = u64 [sp + 0x8]\n  1481: a4 = u64 [sp]\n  1483: u64 [0x300b8] = a0\n  1488: u64 [0x300b0] = a2\n  1493: u64 [0x300a8] = a3\n  1498: u64 [0x300a0] = a4\n  1503: jump @5\n      : @43 (gas: 3)\n  1506: a0 = s1\n  1508: a1 = 0\n  1510: ra = 26, jump @15\n      : @44 [@dyn 13] (gas: 6)\n  1515: i32 a1 = a0 + 0\n  1517: a0 = 0\n  1519: a2 = 0\n  1521: ra = 0x1c\n  1524: ecalli 12 // 'seal_return'\n  1526: jump @46\n      : @45 (gas: 4)\n  1528: a2 = 0\n  1530: ra = 0x1c\n  1533: ecalli 12 // 'seal_return'\n  1535: fallthrough\n      : @46 [@dyn 14] (gas: 19)\n  1536: sp = sp + 0xfffffffffffff808\n  1540: a0 = sp + 0x700\n  1544: u64 [a0 + 0xf0] = ra\n  1548: u64 [a0 + 0xe8] = s0\n  1552: u64 [a0 + 0xe0] = s1\n  1556: s0 = sp + 0x7f8\n  1560: sp = sp + 0xfffffffffffffa78\n  1564: sp = sp & 0xffffffffffffffe0\n  1567: s1 = sp\n  1569: a2 = s1 + 0x7ff\n  1573: a2 = a2 + 0xb1\n  1577: u64 [a2 + 616] = 0\n  1581: u64 [a2 + 608] = 0\n  1585: u64 [a2 + 592] = 0x80\n  1591: a0 = 0x40\n  1594: a1 = s1 + 0x7ff\n  1598: a1 = a1 + 0x301\n  1602: u64 [a2 + 600] = 0\n  1606: ra = 30, jump @9\n      : @47 [@dyn 15] (gas: 4)\n  1611: a0 = 0x20074\n  1616: u64 [s1 + 0xf8] = a0\n  1620: a0 = i32 [0x20074]\n  1625: jump @49 if a0 >=u 4\n      : @48 (gas: 1)\n  1629: jump @257\n      : @49 (gas: 5)\n  1632: a0 = s1 + 0x1000\n  1636: i32 a0 = a0 + 0xfffffffffffffb20\n  1640: a1 = 0\n  1642: ecalli 2 // 'call_data_load'\n  1644: fallthrough\n      : @50 (gas: 4)\n  1645: a2 = s1 + 0x7ff\n  1649: a2 = a2 + 0xb1\n  1653: a0 = i32 [a2 + 0x28c]\n  1657: jump @103 if a0 == 3908892451\n      : @51 (gas: 1)\n  1665: jump @71 if a0 == 4109994709\n      : @52 (gas: 1)\n  1673: jump @122 if a0 != 590923551\n      : @53 (gas: 3)\n  1681: a0 = u64 [s1 + 0xf8]\n  1685: a0 = i32 [a0]\n  1687: jump @55 if a0 >u 291\n      : @54 (gas: 1)\n  1692: jump @258\n      : @55 (gas: 25)\n  1695: a0 = a0 << 0x20\n  1698: a3 = a0 >> 0x20\n  1701: a0 = s1 + 0x1000\n  1705: u64 [a0 + 4294965272] = 0\n  1709: a0 = s1 + 0x1000\n  1713: u64 [a0 + 4294965264] = 0\n  1717: a0 = s1 + 0x1000\n  1721: u64 [a0 + 4294965256] = 0\n  1725: a0 = s1 + 0x1000\n  1729: u64 [a0 + 4294965304] = 0\n  1733: a0 = s1 + 0x1000\n  1737: u64 [a0 + 4294965296] = 0\n  1741: a0 = s1 + 0x1000\n  1745: u64 [a0 + 4294965288] = 0\n  1749: a1 = s1 + 0x1000\n  1753: u64 [a1 + 4294965280] = 0x4\n  1758: a0 = s1 + 0x7ff\n  1762: a0 = a0 + 0x41\n  1765: a1 = s1 + 0x7ff\n  1769: a1 = a1 + 0x21\n  1772: a2 = s1 + 0x7ff\n  1776: a2 = a2 + 0x1\n  1779: a4 = s1 + 0x1000\n  1783: u64 [a4 + 0xfffffffffffff800] = a3\n  1787: ra = 32, jump @296\n      : @56 [@dyn 16] (gas: 3)\n  1792: a0 = u64 [s1 + 0xf8]\n  1796: a0 = i32 [a0]\n  1798: jump @58 if a0 >u 99\n      : @57 (gas: 1)\n  1802: jump @259\n      : @58 (gas: 15)\n  1805: a0 = s1 + 0x1000\n  1809: a0 = u64 [a0 + 0xfffffffffffff858]\n  1813: u64 [s1 + 0xb0] = a0\n  1817: a0 = s1 + 0x1000\n  1821: a0 = u64 [a0 + 0xfffffffffffff850]\n  1825: u64 [s1 + 0xb8] = a0\n  1829: a0 = s1 + 0x1000\n  1833: a0 = u64 [a0 + 0xfffffffffffff848]\n  1837: u64 [s1 + 0xc0] = a0\n  1841: a0 = s1 + 0x1000\n  1845: a0 = u64 [a0 + 0xfffffffffffff840]\n  1849: u64 [s1 + 0xd8] = a0\n  1853: a0 = s1 + 0x7e0\n  1857: a1 = 0x40\n  1860: ra = 34, jump @7\n      : @59 [@dyn 17] (gas: 20)\n  1865: a5 = s1 + 0x700\n  1869: a0 = u64 [a5 + 0xf8]\n  1873: a2 = u64 [a5 + 0xf0]\n  1877: a1 = u64 [a5 + 0xe8]\n  1881: a3 = u64 [a5 + 0xe0]\n  1885: u64 [s1 + 1976] = 0\n  1889: u64 [s1 + 1968] = 0\n  1893: u64 [s1 + 1960] = 0\n  1897: u64 [a5 + 160] = 0x40\n  1902: u64 [s1 + 0xd0] = a0\n  1906: u64 [a5 + 0xd8] = a0\n  1910: u64 [s1 + 0xa0] = a2\n  1914: u64 [a5 + 0xd0] = a2\n  1918: u64 [s1 + 0x98] = a1\n  1922: u64 [a5 + 0xc8] = a1\n  1926: a0 = s1 + 0x7c0\n  1930: a1 = s1 + 0x7a0\n  1934: u64 [s1 + 0xc8] = a3\n  1938: u64 [a5 + 0xc0] = a3\n  1942: ra = 36, jump @287\n      : @60 [@dyn 18] (gas: 3)\n  1947: t0 = u64 [s1 + 0xf8]\n  1951: a0 = i32 [t0]\n  1953: jump @62 if a0 >=u 196\n      : @61 (gas: 1)\n  1958: jump @260\n      : @62 (gas: 13)\n  1961: ra = 0\n  1963: t1 = 0\n  1965: a5 = 0\n  1967: a1 = s1 + 0x100\n  1971: u64 [a1 + 56] = 0x44\n  1975: a0 = u64 [s1 + 0xc8]\n  1979: u64 [a1 + 0x28] = a0\n  1982: a4 = u64 [s1 + 0x98]\n  1986: u64 [a1 + 0x20] = a4\n  1989: a0 = u64 [s1 + 0xa0]\n  1993: u64 [a1 + 0x30] = a0\n  1996: t2 = u64 [s1 + 0xd0]\n  2000: fallthrough\n      : @63 (gas: 13)\n  2001: a0 = ra >u 0\n  2003: a1 = u64 [s1 + 0x138]\n  2007: a1 = a1 <u 0xc4\n  2011: a2 = a1 ^ 0x1\n  2014: a2 = a0 if ra != 0\n  2017: a0 = t1 >u 0\n  2019: a3 = a5 >u 0\n  2021: a1 = i32 [t0]\n  2023: a3 = a0 if a5 == 0\n  2026: a0 = t1 | a5\n  2029: a3 = a2 if a0 == 0\n  2032: a0 = a1 << 0x20\n  2035: jump @146 if a3 != 0\n      : @64 (gas: 16)\n  2039: u64 [s1 + 0x118] = t2\n  2043: a0 = a0 >> 0x20\n  2046: a2 = u64 [s1 + 0x138]\n  2050: a1 = a2 + 0x1f\n  2053: a2 = a1 <u a2\n  2056: a3 = ra + a2\n  2059: a4 = a3 <u ra\n  2062: a4 = a2 if a2 == 0\n  2065: a4 = a4 + t1\n  2068: a2 = a4 <u t1\n  2071: a2 = a2 + a5\n  2074: a2 = a2 | a4\n  2077: a1 = a1 <u a0\n  2080: a1 = 0 if a3 != 0\n  2082: a1 = 0 if a2 != 0\n  2084: jump @66 if a1 != 0\n      : @65 (gas: 1)\n  2087: jump @244\n      : @66 (gas: 16)\n  2090: u64 [s1 + 376] = 0\n  2094: u64 [s1 + 368] = 0\n  2098: u64 [s1 + 360] = 0\n  2102: a1 = u64 [s1 + 0x138]\n  2106: u64 [s1 + 0x180] = a1\n  2110: u64 [s1 + 0x100] = ra\n  2114: u64 [s1 + 0x188] = ra\n  2118: u64 [s1 + 0x160] = a0\n  2122: u64 [s1 + 0x108] = t1\n  2126: u64 [s1 + 0x190] = t1\n  2130: a0 = s1 + 0x1a0\n  2134: a1 = s1 + 0x180\n  2138: a2 = s1 + 0x160\n  2142: u64 [s1 + 0x110] = a5\n  2146: u64 [s1 + 0x198] = a5\n  2150: ra = 38, jump @296\n      : @67 [@dyn 19] (gas: 13)\n  2155: a4 = s1 + 0x100\n  2159: a3 = u64 [a4 + 0x30]\n  2162: a0 = u64 [a4 + 0x28]\n  2165: a2 = a0 | a3\n  2168: a1 = u64 [a4 + 0x18]\n  2171: a5 = u64 [a4 + 0x20]\n  2174: a1 = a1 | a5\n  2177: a2 = a2 | a1\n  2180: a2 = a2 >> 0x20\n  2183: a1 = a1 | a3\n  2186: a1 = a1 << 0x20\n  2189: a1 = a1 | a2\n  2192: jump @69 if a1 == 0\n      : @68 (gas: 1)\n  2195: jump @215\n      : @69 (gas: 13)\n  2198: a4 = u64 [s1 + 0x1b8]\n  2202: a1 = u64 [s1 + 0x1b0]\n  2206: a2 = u64 [s1 + 0x1a8]\n  2210: u64 [s1 + 0x130] = a3\n  2214: a3 = u64 [s1 + 0x1a0]\n  2218: u64 [s1 + 0x140] = a3\n  2222: u64 [s1 + 0x148] = a2\n  2226: u64 [s1 + 0x150] = a1\n  2230: a1 = s1 + 0x140\n  2234: u64 [s1 + 0x158] = a4\n  2238: u64 [s1 + 0x128] = a0\n  2242: u64 [s1 + 0x120] = a5\n  2246: ra = 40, jump @9\n      : @70 [@dyn 20] (gas: 32)\n  2251: t2 = u64 [s1 + 0x118]\n  2255: a0 = u64 [s1 + 0x128]\n  2259: t0 = a0 + 0x20\n  2262: a1 = t0 <u a0\n  2265: a0 = u64 [s1 + 0x120]\n  2269: t1 = a0 + a1\n  2272: a3 = t1 <u a0\n  2275: a3 = a1 if a1 == 0\n  2278: a0 = u64 [s1 + 0x130]\n  2282: a3 = a3 + a0\n  2285: a1 = a3 <u a0\n  2288: t2 = t2 + a1\n  2291: a0 = u64 [s1 + 0x138]\n  2295: a1 = a0 + 0x40\n  2298: a4 = a1 <u a0\n  2301: a0 = u64 [s1 + 0x100]\n  2305: a2 = a0 + a4\n  2308: a0 = a2 <u a0\n  2311: a0 = a4 if a4 == 0\n  2314: a4 = u64 [s1 + 0x108]\n  2318: a0 = a0 + a4\n  2321: a4 = a0 <u a4\n  2324: a5 = u64 [s1 + 0x110]\n  2328: a5 = a5 + a4\n  2331: u64 [s1 + 0x128] = t0\n  2335: u64 [s1 + 0x120] = t1\n  2339: u64 [s1 + 0x130] = a3\n  2343: u64 [s1 + 0x138] = a1\n  2347: ra = a2\n  2349: t1 = a0\n  2351: t0 = u64 [s1 + 0xf8]\n  2355: jump @63\n      : @71 (gas: 8)\n  2358: u64 [a2 + 1096] = 0\n  2362: u64 [a2 + 1088] = 0\n  2366: u64 [a2 + 1080] = 0\n  2370: u64 [a2 + 1072] = 0\n  2374: a0 = s1 + 0x1000\n  2378: i32 a0 = a0 + 0xfffffffffffffce0\n  2382: ecalli 15 // 'value_transferred'\n  2384: fallthrough\n      : @72 (gas: 11)\n  2385: a3 = s1 + 0x7ff\n  2389: a3 = a3 + 0xb1\n  2393: a4 = a3 + 0x400\n  2397: a0 = u64 [a4 + 0x40]\n  2400: a1 = u64 [a4 + 0x48]\n  2403: a2 = u64 [a4 + 0x38]\n  2406: a3 = u64 [a4 + 0x30]\n  2409: a1 = a1 | a2\n  2412: a0 = a0 | a3\n  2415: a0 = a0 | a1\n  2418: jump @74 if a0 == 0\n      : @73 (gas: 1)\n  2421: jump @261\n      : @74 (gas: 3)\n  2424: a0 = u64 [s1 + 0xf8]\n  2428: a0 = i32 [a0]\n  2430: jump @76 if a0 >u 35\n      : @75 (gas: 1)\n  2434: jump @262\n      : @76 (gas: 32)\n  2437: a0 = sp + 0xffffffffffffffe0\n  2440: a0 = a0 & 0xffffffffffffffe0\n  2443: u64 [s1 + 0x130] = a0\n  2447: sp = a0\n  2449: a0 = s1 + 0x1000\n  2453: i32 a0 = a0 + 0xfffffffffffffd00\n  2457: a1 = 0x4\n  2460: ecalli 2 // 'call_data_load'\n  2462: a3 = s1 + 0x7ff\n  2466: a3 = a3 + 0xb1\n  2470: a4 = a3 + 0x400\n  2474: a0 = u64 [a4 + 0x68]\n  2477: a1 = u64 [a4 + 0x60]\n  2480: a2 = u64 [a4 + 0x58]\n  2483: a3 = u64 [a4 + 0x50]\n  2486: u64 [s1 + 0x108] = a0\n  2490: a4 = u64 [s1 + 0x130]\n  2494: u64 [a4 + 0x18] = a0\n  2497: u64 [s1 + 0x100] = a1\n  2501: u64 [a4 + 0x10] = a1\n  2504: u64 [s1 + 0xf8] = a2\n  2508: u64 [a4 + 0x8] = a2\n  2511: u64 [s1 + 0xf0] = a3\n  2515: u64 [a4] = a3\n  2517: a0 = 0x30080\n  2522: u64 [s1 + 0x138] = a0\n  2526: i32 a0 = a0 + 0\n  2528: u64 [s1 + 0x120] = a0\n  2532: ra = 0x2a\n  2535: ecalli 4 // 'caller'\n  2537: t0 = 0x2c\n  2540: jump @322\n      : @77 [@dyn 21] (gas: 1)\n  2543: t0 = 44, jump @322\n      : @78 [@dyn 22] (gas: 9)\n  2548: u64 [a2 + 584] = 0\n  2552: a4 = a2 + 0x200\n  2556: u64 [a4 + 0x40] = a1\n  2559: u64 [a4 + 0x38] = a0\n  2562: a1 = s1 + 0x7ff\n  2566: a1 = a1 + 0x2e1\n  2570: u64 [a4 + 0x30] = a3\n  2573: a0 = 0\n  2575: ra = 46, jump @9\n      : @79 [@dyn 23] (gas: 11)\n  2580: a0 = s1 + 0x7ff\n  2584: a0 = a0 + 0xb1\n  2588: u64 [a0 + 552] = 0\n  2592: u64 [a0 + 544] = 0\n  2596: u64 [a0 + 536] = 0\n  2600: a2 = a0\n  2602: a0 = 0x20\n  2605: a1 = s1 + 0x7ff\n  2609: a1 = a1 + 0x2c1\n  2613: u64 [a2 + 528] = 0\n  2617: ra = 48, jump @9\n      : @80 [@dyn 24] (gas: 3)\n  2622: a2 = 0x20078\n  2627: a0 = i32 [0x20078]\n  2632: jump @82 if a0 >u 63\n      : @81 (gas: 2)\n  2636: u32 [0x20078] = 0x40\n  2642: fallthrough\n      : @82 (gas: 15)\n  2643: u64 [s1 + 0x110] = a2\n  2647: a0 = sp + 0xffffffffffffffe0\n  2650: a2 = a0 & 0xffffffffffffffe0\n  2653: u64 [s1 + 0x128] = a2\n  2657: sp = a2\n  2659: a0 = 0x20080\n  2664: i32 a0 = a0 + 0\n  2666: i32 a2 = a2 + 0\n  2668: a1 = 0x40\n  2671: u64 [s1 + 0x118] = a0\n  2675: ra = 0x32\n  2678: ecalli 8 // 'hash_keccak_256'\n  2680: a3 = u64 [s1 + 0x128]\n  2684: t0 = 0x34\n  2687: jump @321\n      : @83 [@dyn 25] (gas: 2)\n  2690: a3 = u64 [s1 + 0x128]\n  2694: t0 = 52, jump @321\n      : @84 [@dyn 26] (gas: 9)\n  2699: u64 [a5 + 0x88] = a3\n  2703: u64 [a5 + 0x80] = a2\n  2707: u64 [a5 + 0x78] = a1\n  2710: u64 [a5 + 0x70] = a0\n  2713: a0 = s1 + 0x7ff\n  2717: a0 = a0 + 0x2a1\n  2721: a1 = s1 + 0x7ff\n  2725: a1 = a1 + 0x521\n  2729: ra = 54, jump @11\n      : @85 [@dyn 27] (gas: 10)\n  2734: a3 = s1 + 0x7ff\n  2738: a3 = a3 + 0xb1\n  2742: a0 = u64 [a3 + 0x200]\n  2746: a1 = u64 [a3 + 0x208]\n  2750: a2 = u64 [a3 + 0x1f8]\n  2754: a3 = u64 [a3 + 0x1f0]\n  2758: a1 = a1 | a2\n  2761: a0 = a0 | a3\n  2764: a0 = a0 | a1\n  2767: jump @135 if a0 != 0\n      : @86 (gas: 5)\n  2771: a0 = u64 [s1 + 0x120]\n  2775: ra = 0x38\n  2778: ecalli 4 // 'caller'\n  2780: t0 = 0x3a\n  2783: jump @322\n      : @87 [@dyn 28] (gas: 1)\n  2786: t0 = 58, jump @322\n      : @88 [@dyn 29] (gas: 9)\n  2791: u64 [a2 + 328] = 0\n  2795: a4 = a2 + 0x100\n  2799: u64 [a4 + 0x40] = a1\n  2802: u64 [a4 + 0x38] = a0\n  2805: a1 = s1 + 0x7ff\n  2809: a1 = a1 + 0x1e1\n  2813: u64 [a4 + 0x30] = a3\n  2816: a0 = 0\n  2818: ra = 60, jump @9\n      : @89 [@dyn 30] (gas: 11)\n  2823: a0 = s1 + 0x7ff\n  2827: a0 = a0 + 0xb1\n  2831: u64 [a0 + 296] = 0\n  2835: u64 [a0 + 288] = 0\n  2839: u64 [a0 + 280] = 0\n  2843: a2 = a0\n  2845: a0 = 0x20\n  2848: a1 = s1 + 0x7ff\n  2852: a1 = a1 + 0x1c1\n  2856: u64 [a2 + 272] = 0\n  2860: ra = 62, jump @9\n      : @90 [@dyn 31] (gas: 3)\n  2865: a2 = u64 [s1 + 0x110]\n  2869: a0 = i32 [a2]\n  2871: jump @92 if a0 >u 63\n      : @91 (gas: 2)\n  2875: u32 [a2 + 0] = 0x40\n  2878: fallthrough\n      : @92 (gas: 12)\n  2879: a0 = sp + 0xffffffffffffffe0\n  2882: a0 = a0 & 0xffffffffffffffe0\n  2885: u64 [s1 + 0x128] = a0\n  2889: sp = a0\n  2891: i32 a2 = a0 + 0\n  2893: a1 = 0x40\n  2896: a0 = u64 [s1 + 0x118]\n  2900: ra = 0x40\n  2903: ecalli 8 // 'hash_keccak_256'\n  2905: a3 = u64 [s1 + 0x128]\n  2909: t0 = 0x42\n  2912: jump @321\n      : @93 [@dyn 32] (gas: 2)\n  2915: a3 = u64 [s1 + 0x128]\n  2919: t0 = 66, jump @321\n      : @94 [@dyn 33] (gas: 8)\n  2924: u64 [a5 + 0xa8] = a3\n  2928: u64 [a5 + 0xa0] = a2\n  2932: u64 [a5 + 0x98] = a1\n  2936: u64 [a5 + 0x90] = a0\n  2940: a0 = s1 + 0x7ff\n  2944: a0 = a0 + 0x541\n  2948: a1 = u64 [s1 + 0x130]\n  2952: ra = 68, jump @12\n      : @95 [@dyn 34] (gas: 4)\n  2957: a0 = s1 + 0x7ff\n  2961: a0 = a0 + 0x1a1\n  2965: a1 = 0x40\n  2968: ra = 70, jump @7\n      : @96 [@dyn 35] (gas: 14)\n  2973: a3 = s1 + 0x7ff\n  2977: a3 = a3 + 0xb1\n  2981: a0 = u64 [a3 + 0x108]\n  2985: a1 = u64 [a3 + 0x100]\n  2989: a2 = u64 [a3 + 0xf8]\n  2993: a4 = u64 [a3 + 0xf0]\n  2997: a0 = a0 | a2\n  3000: a2 = a4 | a1\n  3003: a2 = a2 | a0\n  3006: a2 = a2 >> 0x20\n  3009: a0 = a0 | a1\n  3012: a0 = a0 << 0x20\n  3015: a0 = a0 | a2\n  3018: jump @98 if a0 == 0\n      : @97 (gas: 1)\n  3021: jump @215\n      : @98 (gas: 13)\n  3024: a0 = u64 [s1 + 0xf0]\n  3028: u64 [a3 + 0xd0] = a0\n  3032: a0 = u64 [s1 + 0xf8]\n  3036: u64 [a3 + 0xd8] = a0\n  3040: a0 = u64 [s1 + 0x100]\n  3044: u64 [a3 + 0xe0] = a0\n  3048: a1 = s1 + 0x7ff\n  3052: a1 = a1 + 0x181\n  3056: a0 = u64 [s1 + 0x108]\n  3060: u64 [a3 + 0xe8] = a0\n  3064: a0 = a4\n  3066: u64 [s1 + 0x130] = a4\n  3070: ra = 72, jump @9\n      : @99 [@dyn 36] (gas: 6)\n  3075: a0 = u64 [s1 + 0x120]\n  3079: ra = 0x4a\n  3082: ecalli 4 // 'caller'\n  3084: a2 = u64 [s1 + 0x138]\n  3088: t0 = 0x4c\n  3091: jump @328\n      : @100 [@dyn 37] (gas: 2)\n  3094: a2 = u64 [s1 + 0x138]\n  3098: t0 = 76, jump @328\n      : @101 [@dyn 38] (gas: 27)\n  3103: t0 = a1 | a0\n  3106: a3 = a3 >> 0x20\n  3109: a2 = reverse a2\n  3111: a1 = a2 << 0x20\n  3114: a1 = a1 | a3\n  3117: a2 = a2 >> 0x20\n  3120: a3 = u64 [0x20010]\n  3125: a0 = s1 + 0x7ff\n  3129: a0 = a0 + 0xb1\n  3133: u64 [a0 + 0xc8] = a3\n  3137: a3 = u64 [0x20018]\n  3142: a4 = u64 [0x20020]\n  3147: a5 = u64 [0x20028]\n  3152: u64 [a0 + 0xc0] = a3\n  3156: u64 [a0 + 0xb8] = a4\n  3160: u64 [a0 + 168] = 0\n  3164: u64 [a0 + 0xb0] = a5\n  3168: u64 [a0 + 0xa0] = a2\n  3172: u64 [a0 + 0x98] = a1\n  3176: a1 = 0x20\n  3179: a2 = s1 + 0x7ff\n  3183: a2 = a2 + 0x161\n  3187: a3 = s1 + 0x7ff\n  3191: a3 = a3 + 0x141\n  3195: u64 [a0 + 0x90] = t0\n  3199: a0 = u64 [s1 + 0x130]\n  3203: ra = 78, jump @13\n      : @102 [@dyn 39] (gas: 5)\n  3208: a0 = 0\n  3210: a1 = u64 [s1 + 0x118]\n  3214: a2 = 0\n  3216: ecalli 12 // 'seal_return'\n  3218: jump @246\n      : @103 (gas: 8)\n  3221: u64 [a2 + 1000] = 0\n  3225: u64 [a2 + 992] = 0\n  3229: u64 [a2 + 984] = 0\n  3233: u64 [a2 + 976] = 0\n  3237: a0 = s1 + 0x1000\n  3241: i32 a0 = a0 + 0xfffffffffffffc80\n  3245: ecalli 15 // 'value_transferred'\n  3247: fallthrough\n      : @104 (gas: 11)\n  3248: a3 = s1 + 0x7ff\n  3252: a3 = a3 + 0xb1\n  3256: a4 = a3 + 0x300\n  3260: a0 = u64 [a4 + 0xe0]\n  3264: a1 = u64 [a4 + 0xe8]\n  3268: a2 = u64 [a4 + 0xd8]\n  3272: a3 = u64 [a4 + 0xd0]\n  3276: a1 = a1 | a2\n  3279: a0 = a0 | a3\n  3282: a0 = a0 | a1\n  3285: jump @106 if a0 == 0\n      : @105 (gas: 1)\n  3288: jump @263\n      : @106 (gas: 3)\n  3291: a0 = u64 [s1 + 0xf8]\n  3295: a0 = i32 [a0]\n  3297: jump @108 if a0 >u 35\n      : @107 (gas: 1)\n  3301: jump @264\n      : @108 (gas: 5)\n  3304: a0 = s1 + 0x1000\n  3308: i32 a0 = a0 + 0xfffffffffffffca0\n  3312: a1 = 0x4\n  3315: ecalli 2 // 'call_data_load'\n  3317: fallthrough\n      : @109 (gas: 12)\n  3318: a4 = s1 + 0x7ff\n  3322: a4 = a4 + 0xb1\n  3326: a1 = u64 [a4 + 0x400]\n  3330: a0 = u64 [a4 + 0x408]\n  3334: a2 = 0x100000000\n  3344: a2 = a2 ^ a1\n  3347: a2 = a2 | a0\n  3350: a3 = a1 >> 0x20\n  3353: a3 = a3 <u 0x1\n  3356: a3 = 0 if a0 != 0\n  3358: a3 = 0 if a2 == 0\n  3360: jump @111 if a3 != 0\n      : @110 (gas: 1)\n  3363: jump @265\n      : @111 (gas: 10)\n  3366: a2 = u64 [a4 + 0x3f8]\n  3370: a3 = u64 [a4 + 0x3f0]\n  3374: u64 [a4 + 0x70] = a3\n  3377: u64 [a4 + 0x78] = a2\n  3380: u64 [a4 + 0x80] = a1\n  3384: a1 = s1 + 0x7ff\n  3388: a1 = a1 + 0x121\n  3392: u64 [a4 + 0x88] = a0\n  3396: a0 = 0\n  3398: ra = 80, jump @9\n      : @112 [@dyn 40] (gas: 11)\n  3403: a0 = s1 + 0x7ff\n  3407: a0 = a0 + 0xb1\n  3411: u64 [a0 + 104] = 0\n  3414: u64 [a0 + 96] = 0\n  3417: u64 [a0 + 88] = 0\n  3420: a2 = a0\n  3422: a0 = 0x20\n  3425: a1 = s1 + 0x7ff\n  3429: a1 = a1 + 0x101\n  3433: u64 [a2 + 80] = 0\n  3436: ra = 82, jump @9\n      : @113 [@dyn 41] (gas: 2)\n  3441: a1 = i32 [0x20078]\n  3446: jump @115 if a1 >u 63\n      : @114 (gas: 2)\n  3450: u32 [0x20078] = 0x40\n  3456: fallthrough\n      : @115 (gas: 13)\n  3457: a0 = sp + 0xffffffffffffffe0\n  3460: a2 = a0 & 0xffffffffffffffe0\n  3463: u64 [s1 + 0x138] = a2\n  3467: sp = a2\n  3469: a0 = 0x20080\n  3474: i32 a0 = a0 + 0\n  3476: i32 a2 = a2 + 0\n  3478: a1 = 0x40\n  3481: ra = 0x54\n  3484: ecalli 8 // 'hash_keccak_256'\n  3486: a3 = u64 [s1 + 0x138]\n  3490: t0 = 0x56\n  3493: jump @321\n      : @116 [@dyn 42] (gas: 2)\n  3496: a3 = u64 [s1 + 0x138]\n  3500: t0 = 86, jump @321\n      : @117 [@dyn 43] (gas: 9)\n  3505: u64 [a5 + 0x28] = a3\n  3508: u64 [a5 + 0x20] = a2\n  3511: u64 [a5 + 0x18] = a1\n  3514: u64 [a5 + 0x10] = a0\n  3517: a0 = s1 + 0x7ff\n  3521: a0 = a0 + 0xe1\n  3525: a1 = s1 + 0x7ff\n  3529: a1 = a1 + 0x4c1\n  3533: ra = 88, jump @11\n      : @118 [@dyn 44] (gas: 15)\n  3538: a1 = s1 + 0x7ff\n  3542: a1 = a1 + 0xb1\n  3546: a0 = u64 [a1 + 0x48]\n  3549: a2 = s1 + 0x100\n  3553: u64 [a2 + 0x38] = a0\n  3556: a0 = u64 [a1 + 0x40]\n  3559: u64 [a2 + 0x30] = a0\n  3562: a0 = u64 [a1 + 0x38]\n  3565: u64 [a2 + 0x28] = a0\n  3568: a0 = u64 [a1 + 0x30]\n  3571: u64 [a2 + 0x20] = a0\n  3574: a0 = s1 + 0x7ff\n  3578: a0 = a0 + 0xc1\n  3582: a1 = 0x40\n  3585: ra = 90, jump @7\n      : @119 [@dyn 45] (gas: 14)\n  3590: a3 = s1 + 0x7ff\n  3594: a3 = a3 + 0xb1\n  3598: a0 = u64 [a3 + 0x28]\n  3601: a1 = u64 [a3 + 0x20]\n  3604: a2 = u64 [a3 + 0x18]\n  3607: a4 = u64 [a3 + 0x10]\n  3610: a0 = a0 | a2\n  3613: a2 = a4 | a1\n  3616: a2 = a2 | a0\n  3619: a2 = a2 >> 0x20\n  3622: a0 = a0 | a1\n  3625: a0 = a0 << 0x20\n  3628: a0 = a0 | a2\n  3631: jump @215 if a0 != 0\n      : @120 (gas: 15)\n  3635: a0 = u64 [s1 + 0x120]\n  3639: a1 = s1 + 0x1000\n  3643: u64 [a1 + 0xfffffffffffff8a0] = a0\n  3647: a0 = u64 [s1 + 0x128]\n  3651: a1 = s1 + 0x1000\n  3655: u64 [a1 + 0xfffffffffffff8a8] = a0\n  3659: a0 = u64 [s1 + 0x130]\n  3663: u64 [a3] = a0\n  3665: a1 = s1 + 0x7ff\n  3669: a1 = a1 + 0xa1\n  3673: a0 = u64 [s1 + 0x138]\n  3677: u64 [a3 + 0x8] = a0\n  3680: a0 = a4\n  3682: u64 [s1 + 0x138] = a4\n  3686: ra = 92, jump @9\n      : @121 [@dyn 46] (gas: 4)\n  3691: a1 = 0x20\n  3694: a0 = u64 [s1 + 0x138]\n  3698: ra = 0x64\n  3701: jump @15\n      : @122 (gas: 1)\n  3704: jump @124 if a0 == 729465843\n      : @123 (gas: 1)\n  3711: jump @257\n      : @124 (gas: 8)\n  3714: u64 [a2 + 968] = 0\n  3718: u64 [a2 + 960] = 0\n  3722: u64 [a2 + 952] = 0\n  3726: u64 [a2 + 944] = 0\n  3730: a0 = s1 + 0x1000\n  3734: i32 a0 = a0 + 0xfffffffffffffc60\n  3738: ecalli 15 // 'value_transferred'\n  3740: fallthrough\n      : @125 (gas: 11)\n  3741: a3 = s1 + 0x7ff\n  3745: a3 = a3 + 0xb1\n  3749: a4 = a3 + 0x300\n  3753: a0 = u64 [a4 + 0xc0]\n  3757: a1 = u64 [a4 + 0xc8]\n  3761: a2 = u64 [a4 + 0xb8]\n  3765: a3 = u64 [a4 + 0xb0]\n  3769: a1 = a1 | a2\n  3772: a0 = a0 | a3\n  3775: a0 = a0 | a1\n  3778: jump @127 if a0 == 0\n      : @126 (gas: 1)\n  3781: jump @266\n      : @127 (gas: 3)\n  3784: a0 = u64 [s1 + 0xf8]\n  3788: a0 = i32 [a0]\n  3790: jump @129 if a0 >u 3\n      : @128 (gas: 1)\n  3794: jump @267\n      : @129 (gas: 4)\n  3797: a0 = s1 + 0x7ff\n  3801: a0 = a0 + 0x81\n  3805: a1 = 0x40\n  3808: ra = 94, jump @7\n      : @130 [@dyn 47] (gas: 13)\n  3813: a0 = s1 + 0x1000\n  3817: a0 = u64 [a0 + 0xfffffffffffff898]\n  3821: u64 [s1 + 0x138] = a0\n  3825: a0 = s1 + 0x1000\n  3829: a0 = u64 [a0 + 0xfffffffffffff890]\n  3833: u64 [s1 + 0x130] = a0\n  3837: a0 = s1 + 0x1000\n  3841: a0 = u64 [a0 + 0xfffffffffffff888]\n  3845: u64 [s1 + 0x120] = a0\n  3849: a0 = s1 + 0x1000\n  3853: a0 = u64 [a0 + 0xfffffffffffff880]\n  3857: u64 [s1 + 0x128] = a0\n  3861: ra = 96, jump @0\n      : @131 [@dyn 48] (gas: 14)\n  3866: a4 = s1 + 0x100\n  3870: a0 = u64 [a4 + 0x38]\n  3873: a1 = u64 [a4 + 0x20]\n  3876: a0 = a0 | a1\n  3879: a1 = u64 [a4 + 0x28]\n  3882: a3 = a1\n  3884: a2 = u64 [a4 + 0x30]\n  3887: a1 = a1 | a2\n  3890: a1 = a1 | a0\n  3893: a1 = a1 >> 0x20\n  3896: a0 = a0 | a2\n  3899: a0 = a0 << 0x20\n  3902: a0 = a0 | a1\n  3905: jump @215 if a0 != 0\n      : @132 (gas: 15)\n  3909: a2 = u64 [0x300a0]\n  3914: a1 = u64 [0x300a8]\n  3919: a0 = u32 [0x300b0]\n  3924: a4 = s1 + 0x1000\n  3928: u64 [a4 + 4294965368] = 0\n  3932: a4 = s1 + 0x1000\n  3936: u64 [a4 + 0xfffffffffffff870] = a0\n  3940: a0 = s1 + 0x1000\n  3944: u64 [a0 + 0xfffffffffffff868] = a1\n  3948: a1 = s1 + 0x7ff\n  3952: a1 = a1 + 0x61\n  3955: a0 = s1 + 0x1000\n  3959: u64 [a0 + 0xfffffffffffff860] = a2\n  3963: a0 = a3\n  3965: ra = 98, jump @9\n      : @133 [@dyn 49] (gas: 3)\n  3970: a1 = 0x20\n  3973: a0 = u64 [s1 + 0x128]\n  3977: ra = 100, jump @15\n      : @134 [@dyn 50] (gas: 5)\n  3982: i32 a1 = a0 + 0\n  3984: a2 = 0x20\n  3987: a0 = 0\n  3989: ecalli 12 // 'seal_return'\n  3991: fallthrough\n      : @135 (gas: 4)\n  3992: a0 = s1 + 0x7ff\n  3996: a0 = a0 + 0x281\n  4000: a1 = 0x40\n  4003: ra = 102, jump @7\n      : @136 [@dyn 51] (gas: 15)\n  4008: a4 = s1 + 0x7ff\n  4012: a4 = a4 + 0xb1\n  4016: t0 = u64 [a4 + 0x1e8]\n  4020: a1 = a4 + 0x100\n  4024: a5 = u64 [a1 + 0xe0]\n  4028: a3 = u64 [a1 + 0xd8]\n  4032: a0 = u64 [a1 + 0xd0]\n  4036: a2 = a3 | t0\n  4039: a1 = a0 | a5\n  4042: a1 = a1 | a2\n  4045: a1 = a1 >> 0x20\n  4048: a2 = a2 | a5\n  4051: a2 = a2 << 0x20\n  4054: a1 = a1 | a2\n  4057: jump @215 if a1 != 0\n      : @137 (gas: 12)\n  4061: u64 [a4 + 448] = 0\n  4065: u64 [a4 + 440] = 0\n  4069: u64 [a4 + 432] = 0\n  4073: u64 [s1 + 0x130] = a3\n  4077: a3 = 0x8c379a000000000\n  4087: a1 = s1 + 0x7ff\n  4091: a1 = a1 + 0x261\n  4095: u64 [a4 + 0x1c8] = a3\n  4099: u64 [s1 + 0x138] = a0\n  4103: u64 [s1 + 0x128] = t0\n  4107: u64 [s1 + 0x120] = a5\n  4111: ra = 104, jump @9\n      : @138 [@dyn 52] (gas: 1)\n  4116: t0 = 106, jump @324\n      : @139 [@dyn 53] (gas: 1)\n  4121: jump @215 if a0 == 0\n      : @140 (gas: 12)\n  4125: i32 a0 = a1 + 0x4\n  4128: a2 = s1 + 0x7ff\n  4132: a2 = a2 + 0xb1\n  4136: u64 [a2 + 424] = 0\n  4140: u64 [a2 + 416] = 0\n  4144: u64 [a2 + 400] = 0x20\n  4149: a1 = s1 + 0x7ff\n  4153: a1 = a1 + 0x241\n  4157: u64 [a2 + 408] = 0\n  4161: u64 [s1 + 0x128] = a3\n  4165: u64 [s1 + 0x120] = a4\n  4169: ra = 108, jump @9\n      : @141 [@dyn 54] (gas: 1)\n  4174: t0 = 110, jump @327\n      : @142 [@dyn 55] (gas: 1)\n  4179: jump @215 if a0 == 0\n      : @143 (gas: 10)\n  4183: i32 a0 = a1 + 0x24\n  4186: a3 = s1 + 0x7ff\n  4190: a3 = a3 + 0xb1\n  4194: u64 [a3 + 392] = 0\n  4198: u64 [a3 + 384] = 0\n  4202: u64 [a3 + 368] = 0x11\n  4207: a1 = s1 + 0x7ff\n  4211: a1 = a1 + 0x221\n  4215: u64 [a3 + 376] = 0\n  4219: ra = 112, jump @9\n      : @144 [@dyn 56] (gas: 9)\n  4224: a2 = s1 + 0x100\n  4228: a3 = u64 [a2 + 0x38]\n  4231: a0 = 0xffffffbc\n  4241: a0 = a3 <u a0\n  4244: a1 = u64 [a2 + 0x30]\n  4247: a0 = 0 if a1 != 0\n  4249: a1 = u64 [a2 + 0x28]\n  4252: a0 = 0 if a1 != 0\n  4254: jump @215 if a0 == 0\n      : @145 (gas: 15)\n  4258: i32 a0 = a3 + 0x44\n  4261: a1 = u64 [0x20000]\n  4266: a2 = u64 [0x20008]\n  4271: a4 = s1 + 0x7ff\n  4275: a4 = a4 + 0xb1\n  4279: a3 = a4 + 0x100\n  4283: u64 [a3 + 0x68] = a1\n  4286: u64 [a3 + 0x60] = a2\n  4289: a1 = 0x6400000000000000\n  4299: u64 [a3 + 0x58] = a1\n  4302: a1 = s1 + 0x7ff\n  4306: a1 = a1 + 0x201\n  4310: u64 [a4 + 336] = 0\n  4314: ra = 0xda\n  4318: jump @9\n      : @146 (gas: 1)\n  4321: jump @268 if a1 <u 228\n      : @147 (gas: 13)\n  4327: a3 = a0 >> 0x20\n  4330: u64 [s1 + 1880] = 0\n  4334: u64 [s1 + 1872] = 0\n  4338: u64 [s1 + 1864] = 0\n  4342: u64 [s1 + 1912] = 0\n  4346: u64 [s1 + 1904] = 0\n  4350: u64 [s1 + 1896] = 0\n  4354: u64 [s1 + 1888] = 0xc4\n  4360: a0 = s1 + 0x780\n  4364: a1 = s1 + 0x760\n  4368: a2 = s1 + 0x740\n  4372: u64 [s1 + 0x740] = a3\n  4376: ra = 114, jump @296\n      : @148 [@dyn 57] (gas: 3)\n  4381: a0 = u64 [s1 + 0xf8]\n  4385: a0 = i32 [a0]\n  4387: jump @269 if a0 <=u 291\n      : @149 (gas: 11)\n  4393: a0 = u64 [s1 + 0x798]\n  4397: u64 [s1 + 0x60] = a0\n  4400: a0 = u64 [s1 + 0x790]\n  4404: u64 [s1 + 0x58] = a0\n  4407: a0 = u64 [s1 + 0x788]\n  4411: u64 [s1 + 0x50] = a0\n  4414: a0 = u64 [s1 + 0x780]\n  4418: u64 [s1 + 0x48] = a0\n  4421: a0 = s1 + 0x720\n  4425: a1 = 0x40\n  4428: ra = 116, jump @7\n      : @150 [@dyn 58] (gas: 20)\n  4433: a5 = s1 + 0x700\n  4437: a1 = u64 [a5 + 0x38]\n  4440: a2 = u64 [a5 + 0x30]\n  4443: a3 = u64 [a5 + 0x28]\n  4446: a4 = u64 [a5 + 0x20]\n  4449: u64 [s1 + 1784] = 0\n  4453: u64 [s1 + 1776] = 0\n  4457: u64 [s1 + 1768] = 0\n  4461: u64 [s1 + 1760] = 0x20\n  4466: u64 [s1 + 0xe8] = a1\n  4470: u64 [a5 + 0x18] = a1\n  4473: u64 [s1 + 0xf0] = a2\n  4477: u64 [a5 + 0x10] = a2\n  4480: u64 [s1 + 0xe0] = a3\n  4484: u64 [a5 + 0x8] = a3\n  4487: a0 = s1 + 0x700\n  4491: a1 = s1 + 0x6e0\n  4495: u64 [s1 + 0x70] = a4\n  4498: u64 [a5] = a4\n  4500: ra = 118, jump @287\n      : @151 [@dyn 59] (gas: 3)\n  4505: a0 = u64 [s1 + 0xf8]\n  4509: a0 = i32 [a0]\n  4511: jump @270 if a0 <u 292\n      : @152 (gas: 13)\n  4517: a5 = 0\n  4519: a3 = 0\n  4521: a4 = 0\n  4523: t0 = 0x104\n  4527: a0 = s1 + 0x1000\n  4531: i32 a0 = a0 + 0xfffffffffffffb40\n  4535: u64 [s1 + 0xf8] = a0\n  4539: ra = u64 [s1 + 0x70]\n  4542: a0 = u64 [s1 + 0xe0]\n  4546: u64 [s1 + 0x138] = a0\n  4550: t1 = u64 [s1 + 0xf0]\n  4554: t2 = u64 [s1 + 0xe8]\n  4558: fallthrough\n      : @153 (gas: 10)\n  4559: a0 = a5 >u 0\n  4561: a1 = t0 <u 0x124\n  4565: a1 = a1 ^ 0x1\n  4568: a1 = a0 if a5 != 0\n  4571: a0 = a3 >u 0\n  4573: a2 = a4 >u 0\n  4575: a2 = a0 if a4 == 0\n  4578: a0 = a3 | a4\n  4581: a2 = a1 if a0 == 0\n  4584: jump @158 if a2 != 0\n      : @154 (gas: 11)\n  4588: u64 [s1 + 0x108] = a5\n  4592: u64 [s1 + 0x110] = a3\n  4596: u64 [s1 + 0x118] = a4\n  4600: u64 [s1 + 0x100] = t0\n  4604: i32 a1 = t0 + 0\n  4606: a0 = u64 [s1 + 0xf8]\n  4610: u64 [s1 + 0x130] = t2\n  4614: u64 [s1 + 0x128] = t1\n  4618: u64 [s1 + 0x120] = ra\n  4622: ecalli 2 // 'call_data_load'\n  4624: fallthrough\n      : @155 (gas: 13)\n  4625: a3 = s1 + 0x100\n  4629: a5 = u64 [a3 + 0x20]\n  4632: a4 = u64 [a3 + 0x28]\n  4635: a0 = a5 | a4\n  4638: a1 = u64 [a3 + 0x30]\n  4641: a2 = u64 [a3 + 0x38]\n  4644: a1 = a1 | a2\n  4647: a0 = a0 | a1\n  4650: a0 = a0 >> 0x20\n  4653: a1 = a1 | a4\n  4656: a1 = a1 << 0x20\n  4659: a0 = a0 | a1\n  4662: jump @215 if a0 != 0\n      : @156 (gas: 15)\n  4666: a3 = s1 + 0x7ff\n  4670: a3 = a3 + 0xb1\n  4674: t0 = u64 [a3 + 0x290]\n  4678: a4 = a3 + 0x200\n  4682: a1 = u64 [a4 + 0x98]\n  4686: a0 = u64 [a4 + 0xa0]\n  4690: a3 = u64 [a4 + 0xa8]\n  4694: u64 [s1 + 0x1d8] = a3\n  4698: u64 [s1 + 0x1d0] = a0\n  4702: u64 [s1 + 0x1c8] = a1\n  4706: a1 = s1 + 0x1c0\n  4710: u64 [s1 + 0x1c0] = t0\n  4714: a0 = a5\n  4716: u64 [s1 + 0x138] = a2\n  4720: ra = 120, jump @9\n      : @157 [@dyn 60] (gas: 30)\n  4725: t2 = u64 [s1 + 0x130]\n  4729: a0 = u64 [s1 + 0x120]\n  4733: t0 = a0 + 0x20\n  4736: a1 = t0 <u a0\n  4739: a0 = u64 [s1 + 0x138]\n  4743: t1 = a0 + a1\n  4746: a3 = t1 <u a0\n  4749: a3 = a1 if a1 == 0\n  4752: a0 = u64 [s1 + 0x128]\n  4756: a3 = a3 + a0\n  4759: a1 = a3 <u a0\n  4762: t2 = t2 + a1\n  4765: a0 = u64 [s1 + 0x100]\n  4769: a1 = a0 + 0x20\n  4772: a4 = a1 <u a0\n  4775: a0 = u64 [s1 + 0x108]\n  4779: a5 = a0 + a4\n  4782: a0 = a5 <u a0\n  4785: a0 = a4 if a4 == 0\n  4788: a2 = u64 [s1 + 0x110]\n  4792: a0 = a0 + a2\n  4795: a4 = a0 <u a2\n  4798: a2 = u64 [s1 + 0x118]\n  4802: a4 = a4 + a2\n  4805: ra = t0\n  4807: u64 [s1 + 0x138] = t1\n  4811: t1 = a3\n  4813: t0 = a1\n  4815: a3 = a0\n  4817: jump @153\n      : @158 (gas: 8)\n  4820: a0 = 0x30080\n  4825: u64 [s1 + 0x68] = a0\n  4828: i32 a0 = a0 + 0\n  4830: u64 [s1 + 0x40] = a0\n  4833: ra = 0x7a\n  4836: ecalli 4 // 'caller'\n  4838: t0 = 0x7c\n  4841: jump @320\n      : @159 [@dyn 61] (gas: 1)\n  4844: t0 = 124, jump @320\n      : @160 [@dyn 62] (gas: 7)\n  4849: u64 [s1 + 1752] = 0\n  4853: u64 [s1 + 0x6d0] = a1\n  4857: u64 [s1 + 0x6c8] = a0\n  4861: a1 = s1 + 0x6c0\n  4865: u64 [s1 + 0x6c0] = a3\n  4869: a0 = 0\n  4871: ra = 126, jump @9\n      : @161 [@dyn 63] (gas: 7)\n  4876: u64 [s1 + 1720] = 0\n  4880: u64 [s1 + 1712] = 0\n  4884: u64 [s1 + 1704] = 0\n  4888: a0 = 0x20\n  4891: a1 = s1 + 0x6a0\n  4895: u64 [s1 + 1696] = 0\n  4899: ra = 128, jump @9\n      : @162 [@dyn 64] (gas: 3)\n  4905: a1 = 0x40\n  4908: a0 = 0\n  4910: ra = 130, jump @15\n      : @163 [@dyn 65] (gas: 1)\n  4916: t0 = 132, jump @325\n      : @164 [@dyn 66] (gas: 4)\n  4922: ra = 0x86\n  4926: ecalli 8 // 'hash_keccak_256'\n  4928: t0 = 0x88\n  4932: jump @323\n      : @165 [@dyn 67] (gas: 1)\n  4935: t0 = 136, jump @323\n      : @166 [@dyn 68] (gas: 8)\n  4941: u64 [a5 + 0xc8] = a3\n  4945: u64 [a5 + 0xc0] = a2\n  4949: u64 [a5 + 0xb8] = a1\n  4953: u64 [a5 + 0xb0] = a0\n  4957: a0 = s1 + 0x680\n  4961: a1 = s1 + 0x7ff\n  4965: a1 = a1 + 0x361\n  4969: ra = 138, jump @11\n      : @167 [@dyn 69] (gas: 9)\n  4975: a4 = s1 + 0x600\n  4979: a0 = u64 [a4 + 0x90]\n  4983: a1 = u64 [a4 + 0x98]\n  4987: a2 = u64 [a4 + 0x88]\n  4991: a3 = u64 [a4 + 0x80]\n  4995: a1 = a1 | a2\n  4998: a0 = a0 | a3\n  5001: a0 = a0 | a1\n  5004: jump @179 if a0 != 0\n      : @168 (gas: 3)\n  5008: a0 = s1 + 0x260\n  5012: a1 = 0x40\n  5015: ra = 140, jump @7\n      : @169 [@dyn 70] (gas: 13)\n  5021: a1 = s1 + 0x200\n  5025: a4 = u64 [a1 + 0x78]\n  5028: a5 = u64 [a1 + 0x70]\n  5031: a3 = u64 [a1 + 0x68]\n  5034: a0 = u64 [a1 + 0x60]\n  5037: a2 = a3 | a4\n  5040: a1 = a0 | a5\n  5043: a1 = a1 | a2\n  5046: a1 = a1 >> 0x20\n  5049: a2 = a2 | a5\n  5052: a2 = a2 << 0x20\n  5055: a1 = a1 | a2\n  5058: jump @215 if a1 != 0\n      : @170 (gas: 11)\n  5062: u64 [s1 + 592] = 0\n  5066: u64 [s1 + 584] = 0\n  5070: u64 [s1 + 576] = 0\n  5074: a2 = 0x8c379a000000000\n  5084: a1 = s1 + 0x240\n  5088: u64 [s1 + 0x258] = a2\n  5092: u64 [s1 + 0x138] = a0\n  5096: u64 [s1 + 0x130] = a3\n  5100: u64 [s1 + 0x128] = a4\n  5104: u64 [s1 + 0x120] = a5\n  5108: ra = 142, jump @9\n      : @171 [@dyn 71] (gas: 1)\n  5114: t0 = 144, jump @324\n      : @172 [@dyn 72] (gas: 1)\n  5120: jump @215 if a0 == 0\n      : @173 (gas: 9)\n  5124: i32 a0 = a1 + 0x4\n  5127: u64 [s1 + 568] = 0\n  5131: u64 [s1 + 560] = 0\n  5135: u64 [s1 + 544] = 0x20\n  5140: a1 = s1 + 0x220\n  5144: u64 [s1 + 552] = 0\n  5148: u64 [s1 + 0x128] = a3\n  5152: u64 [s1 + 0x120] = a4\n  5156: ra = 146, jump @9\n      : @174 [@dyn 73] (gas: 1)\n  5162: t0 = 148, jump @327\n      : @175 [@dyn 74] (gas: 1)\n  5168: jump @215 if a0 == 0\n      : @176 (gas: 7)\n  5172: i32 a0 = a1 + 0x24\n  5175: u64 [s1 + 536] = 0\n  5179: u64 [s1 + 528] = 0\n  5183: u64 [s1 + 512] = 0xd\n  5188: a1 = s1 + 0x200\n  5192: u64 [s1 + 520] = 0\n  5196: ra = 150, jump @9\n      : @177 [@dyn 75] (gas: 9)\n  5202: a3 = s1 + 0x100\n  5206: a2 = u64 [a3 + 0x38]\n  5209: a0 = 0xffffffbc\n  5219: a0 = a2 <u a0\n  5222: a1 = u64 [a3 + 0x30]\n  5225: a0 = 0 if a1 != 0\n  5227: a1 = u64 [a3 + 0x28]\n  5230: a0 = 0 if a1 != 0\n  5232: jump @215 if a0 == 0\n      : @178 (gas: 10)\n  5236: i32 a0 = a2 + 0x44\n  5239: a1 = u64 [0x20068]\n  5244: u64 [s1 + 488] = 0\n  5248: u64 [s1 + 0x1f8] = a1\n  5252: a1 = 0x746d656e74000000\n  5262: u64 [s1 + 0x1f0] = a1\n  5266: a1 = s1 + 0x1e0\n  5270: u64 [s1 + 480] = 0\n  5274: ra = 0xda\n  5278: jump @9\n      : @179 (gas: 5)\n  5281: a0 = u64 [s1 + 0x40]\n  5284: ra = 0x98\n  5288: ecalli 4 // 'caller'\n  5290: t0 = 0x9a\n  5294: jump @320\n      : @180 [@dyn 76] (gas: 1)\n  5297: t0 = 154, jump @320\n      : @181 [@dyn 77] (gas: 8)\n  5303: u64 [s1 + 1656] = 0\n  5307: a2 = s1 + 0x600\n  5311: u64 [a2 + 0x70] = a1\n  5314: u64 [a2 + 0x68] = a0\n  5317: a1 = s1 + 0x660\n  5321: u64 [a2 + 0x60] = a3\n  5324: a0 = 0\n  5326: ra = 156, jump @9\n      : @182 [@dyn 78] (gas: 7)\n  5332: u64 [s1 + 1624] = 0\n  5336: u64 [s1 + 1616] = 0\n  5340: u64 [s1 + 1608] = 0\n  5344: a0 = 0x20\n  5347: a1 = s1 + 0x640\n  5351: u64 [s1 + 1600] = 0\n  5355: ra = 158, jump @9\n      : @183 [@dyn 79] (gas: 3)\n  5361: a1 = 0x40\n  5364: a0 = 0\n  5366: ra = 160, jump @15\n      : @184 [@dyn 80] (gas: 1)\n  5372: t0 = 162, jump @325\n      : @185 [@dyn 81] (gas: 4)\n  5378: ra = 0xa4\n  5382: ecalli 8 // 'hash_keccak_256'\n  5384: t0 = 0xa6\n  5388: jump @323\n      : @186 [@dyn 82] (gas: 1)\n  5391: t0 = 166, jump @323\n      : @187 [@dyn 83] (gas: 8)\n  5397: u64 [a5 + 0xe8] = a3\n  5401: u64 [a5 + 0xe0] = a2\n  5405: u64 [a5 + 0xd8] = a1\n  5409: u64 [a5 + 0xd0] = a0\n  5413: a0 = s1 + 0x620\n  5417: a1 = s1 + 0x7ff\n  5421: a1 = a1 + 0x381\n  5425: ra = 168, jump @11\n      : @188 [@dyn 84] (gas: 12)\n  5431: a1 = u64 [s1 + 0x70]\n  5434: a3 = u64 [s1 + 0xf0]\n  5438: a0 = a1 | a3\n  5441: a2 = u64 [s1 + 0xe8]\n  5445: a4 = u64 [s1 + 0xe0]\n  5449: a2 = a2 | a4\n  5452: a0 = a0 | a2\n  5455: a0 = a0 >> 0x20\n  5458: a2 = a2 | a3\n  5461: a2 = a2 << 0x20\n  5464: a0 = a0 | a2\n  5467: jump @215 if a0 != 0\n      : @189 (gas: 10)\n  5471: a0 = u64 [s1 + 0x638]\n  5475: u64 [s1 + 0x138] = a0\n  5479: a0 = u64 [s1 + 0x630]\n  5483: u64 [s1 + 0x128] = a0\n  5487: a0 = u64 [s1 + 0x628]\n  5491: u64 [s1 + 0x130] = a0\n  5495: a0 = u64 [s1 + 0x620]\n  5499: u64 [s1 + 0x120] = a0\n  5503: a0 = s1 + 0x600\n  5507: ra = 170, jump @7\n      : @190 [@dyn 85] (gas: 20)\n  5513: a4 = s1 + 0x600\n  5517: a0 = u64 [a4 + 0x10]\n  5520: a1 = u64 [a4]\n  5522: a2 = u64 [a4 + 0x18]\n  5525: a3 = u64 [a4 + 0x8]\n  5528: a4 = u64 [s1 + 0x128]\n  5532: a0 = a0 ^ a4\n  5535: a4 = u64 [s1 + 0x120]\n  5539: a1 = a1 ^ a4\n  5542: a0 = a0 | a1\n  5545: a1 = u64 [s1 + 0x130]\n  5549: a1 = a1 ^ a3\n  5552: a3 = u64 [s1 + 0x138]\n  5556: a2 = a2 ^ a3\n  5559: a1 = a1 | a2\n  5562: a0 = a0 | a1\n  5565: u64 [s1 + 0x138] = a0\n  5569: a0 = s1 + 0x5e0\n  5573: a1 = 0x40\n  5576: ra = 172, jump @7\n      : @191 [@dyn 86] (gas: 9)\n  5582: t0 = u64 [s1 + 0x5f8]\n  5586: a0 = s1 + 0x500\n  5590: a5 = u64 [a0 + 0xf0]\n  5594: a2 = u64 [a0 + 0xe0]\n  5598: a3 = u64 [a0 + 0xe8]\n  5602: a1 = a2 | a5\n  5605: a0 = a3 | t0\n  5608: a4 = u64 [s1 + 0x138]\n  5612: jump @208 if a4 != 0\n      : @192 (gas: 6)\n  5616: a1 = a1 | a0\n  5619: a1 = a1 >> 0x20\n  5622: a0 = a0 | a5\n  5625: a0 = a0 << 0x20\n  5628: a0 = a0 | a1\n  5631: jump @215 if a0 != 0\n      : @193 (gas: 12)\n  5635: u64 [s1 + 1360] = 0\n  5639: u64 [s1 + 1352] = 0\n  5643: u64 [s1 + 1344] = 0\n  5647: a0 = 0x43753b4d00000000\n  5657: a1 = s1 + 0x540\n  5661: u64 [s1 + 0x558] = a0\n  5665: a0 = a2\n  5667: u64 [s1 + 0x38] = a2\n  5670: u64 [s1 + 0x30] = a3\n  5673: u64 [s1 + 0x28] = t0\n  5676: u64 [s1 + 0x20] = a5\n  5679: ra = 174, jump @9\n      : @194 [@dyn 87] (gas: 3)\n  5685: a1 = u64 [s1 + 0x38]\n  5688: a0 = a1 + 0x4\n  5691: t0 = 176, jump @326\n      : @195 [@dyn 88] (gas: 16)\n  5697: a5 = s1 + 0x500\n  5701: u64 [a5 + 0x8] = a2\n  5704: u64 [a5] = a0\n  5706: a0 = u64 [s1 + 0xb0]\n  5710: u64 [a5 + 0x38] = a0\n  5713: a0 = u64 [s1 + 0xb8]\n  5717: u64 [a5 + 0x30] = a0\n  5720: a0 = u64 [s1 + 0xc0]\n  5724: u64 [a5 + 0x28] = a0\n  5727: a0 = u64 [s1 + 0xd8]\n  5731: u64 [a5 + 0x20] = a0\n  5734: u64 [a5 + 0x10] = a3\n  5737: a0 = s1 + 0x520\n  5741: a1 = s1 + 0x500\n  5745: u64 [a5 + 0x18] = a4\n  5748: ra = 178, jump @309\n      : @196 [@dyn 89] (gas: 23)\n  5754: ra = 0\n  5756: t1 = 0\n  5758: t0 = 0\n  5760: a3 = 0\n  5762: a1 = u64 [s1 + 0x38]\n  5765: a0 = a1 + 0x44\n  5768: u64 [s1 + 0xb8] = a0\n  5772: a0 = a0 <u a1\n  5775: a2 = u64 [s1 + 0x30]\n  5778: a1 = a2 + a0\n  5781: u64 [s1 + 0xb0] = a1\n  5785: a1 = a1 <u a2\n  5788: a1 = a0 if a0 == 0\n  5791: a0 = u64 [s1 + 0x20]\n  5794: a1 = a1 + a0\n  5797: u64 [s1 + 0xa8] = a1\n  5801: a0 = a1 <u a0\n  5804: a1 = u64 [s1 + 0x28]\n  5807: a0 = a0 + a1\n  5810: u64 [s1 + 0xc0] = a0\n  5814: a5 = u64 [s1 + 0xa0]\n  5818: t2 = u64 [s1 + 0x98]\n  5822: fallthrough\n      : @197 (gas: 11)\n  5823: a0 = t1 >u 0\n  5825: a1 = ra <u 0x2\n  5828: a1 = a1 ^ 0x1\n  5831: a1 = a0 if t1 != 0\n  5834: a0 = t0 >u 0\n  5836: a2 = a3 >u 0\n  5838: a2 = a0 if a3 == 0\n  5841: a0 = t0 | a3\n  5844: a2 = a1 if a0 == 0\n  5847: a4 = u64 [s1 + 0xd0]\n  5851: jump @216 if a2 != 0\n      : @198 (gas: 15)\n  5855: u64 [s1 + 0x78] = t0\n  5858: u64 [s1 + 0x80] = a3\n  5862: u64 [s1 + 0x88] = t1\n  5866: u64 [s1 + 0x90] = ra\n  5870: a1 = u64 [s1 + 0xc8]\n  5874: a0 = a1 | a5\n  5877: u64 [s1 + 0x98] = t2\n  5881: a4 = t2 | a4\n  5884: a0 = a0 | a4\n  5887: a0 = a0 >> 0x20\n  5890: u64 [s1 + 0xa0] = a5\n  5894: a3 = a4 | a5\n  5897: a3 = a3 << 0x20\n  5900: a0 = a0 | a3\n  5903: jump @215 if a0 != 0\n      : @199 (gas: 2)\n  5907: a0 = s1 + 0x2c0\n  5911: ra = 180, jump @7\n      : @200 [@dyn 90] (gas: 19)\n  5917: a0 = u64 [s1 + 0x2d8]\n  5921: a1 = s1 + 0x100\n  5925: u64 [a1 + 0x18] = a0\n  5928: t0 = u64 [s1 + 0x2d0]\n  5932: t1 = u64 [s1 + 0x2c8]\n  5936: ra = u64 [s1 + 0x2c0]\n  5940: a3 = 0\n  5942: t2 = 0\n  5944: a2 = 0\n  5946: a5 = 0\n  5948: a0 = u64 [s1 + 0xb8]\n  5952: u64 [a1 + 0x28] = a0\n  5955: a0 = u64 [s1 + 0xb0]\n  5959: u64 [a1 + 0x20] = a0\n  5962: a0 = u64 [s1 + 0xa8]\n  5966: u64 [a1 + 0x30] = a0\n  5969: a0 = u64 [s1 + 0xc0]\n  5973: u64 [a1 + 0x38] = a0\n  5976: fallthrough\n      : @201 (gas: 12)\n  5977: a0 = t2 >u 0\n  5979: a1 = a3 <u 0x2\n  5982: a1 = a1 ^ 0x1\n  5985: a1 = a0 if t2 != 0\n  5988: a4 = a2 >u 0\n  5990: a0 = a2\n  5992: a2 = a5 >u 0\n  5994: a2 = a4 if a5 == 0\n  5997: u64 [s1 + 0x110] = a0\n  6001: a0 = a0 | a5\n  6004: a2 = a1 if a0 == 0\n  6007: jump @207 if a2 != 0\n      : @202 (gas: 9)\n  6011: a0 = ra | t0\n  6014: a1 = u64 [s1 + 0x118]\n  6018: a1 = t1 | a1\n  6021: a0 = a0 | a1\n  6024: a0 = a0 >> 0x20\n  6027: a1 = a1 | t0\n  6030: a1 = a1 << 0x20\n  6033: a0 = a0 | a1\n  6036: jump @215 if a0 != 0\n      : @203 (gas: 9)\n  6040: u64 [s1 + 0xe8] = t1\n  6044: u64 [s1 + 0xf0] = t0\n  6048: u64 [s1 + 0xf8] = a5\n  6052: u64 [s1 + 0x100] = t2\n  6056: u64 [s1 + 0x108] = a3\n  6060: a0 = s1 + 0x2a0\n  6064: a1 = ra\n  6066: u64 [s1 + 0xe0] = ra\n  6070: ra = 182, jump @7\n      : @204 [@dyn 91] (gas: 13)\n  6076: a1 = s1 + 0x100\n  6080: a4 = u64 [a1 + 0x30]\n  6083: a0 = u64 [a1 + 0x28]\n  6086: a2 = a0 | a4\n  6089: a3 = u64 [a1 + 0x38]\n  6092: a5 = u64 [a1 + 0x20]\n  6095: a1 = a5 | a3\n  6098: a2 = a2 | a1\n  6101: a2 = a2 >> 0x20\n  6104: a1 = a1 | a4\n  6107: a1 = a1 << 0x20\n  6110: a1 = a1 | a2\n  6113: jump @215 if a1 != 0\n      : @205 (gas: 14)\n  6117: t0 = u64 [s1 + 0x2b8]\n  6121: a1 = u64 [s1 + 0x2b0]\n  6125: a2 = u64 [s1 + 0x2a8]\n  6129: u64 [s1 + 0x138] = a3\n  6133: a3 = u64 [s1 + 0x2a0]\n  6137: u64 [s1 + 0x280] = a3\n  6141: u64 [s1 + 0x288] = a2\n  6145: u64 [s1 + 0x290] = a1\n  6149: a1 = s1 + 0x280\n  6153: u64 [s1 + 0x298] = t0\n  6157: u64 [s1 + 0x130] = a4\n  6161: u64 [s1 + 0x128] = a0\n  6165: u64 [s1 + 0x120] = a5\n  6169: ra = 184, jump @9\n      : @206 [@dyn 92] (gas: 48)\n  6175: a1 = u64 [s1 + 0x128]\n  6179: a0 = a1 + 0x20\n  6182: u64 [s1 + 0xd8] = a0\n  6186: a2 = a0 <u a1\n  6189: a0 = u64 [s1 + 0x120]\n  6193: t1 = a0 + a2\n  6196: a3 = t1 <u a0\n  6199: a3 = a2 if a2 == 0\n  6202: a0 = u64 [s1 + 0x130]\n  6206: ra = a0 + a3\n  6209: a3 = ra <u a0\n  6212: a0 = u64 [s1 + 0x138]\n  6216: a0 = a0 + a3\n  6219: u64 [s1 + 0x138] = a0\n  6223: a0 = u64 [s1 + 0xe0]\n  6227: t0 = a0 + 0x20\n  6230: a4 = t0 <u a0\n  6233: a0 = u64 [s1 + 0xe8]\n  6237: a2 = a0 + a4\n  6240: a0 = a2 <u a0\n  6243: a0 = a4 if a4 == 0\n  6246: a1 = u64 [s1 + 0xf0]\n  6250: a0 = a0 + a1\n  6253: a4 = a0 <u a1\n  6256: a1 = u64 [s1 + 0x118]\n  6260: a1 = a1 + a4\n  6263: u64 [s1 + 0x118] = a1\n  6267: a3 = u64 [s1 + 0x108]\n  6271: a3 = a3 + 0x1\n  6274: a4 = a3 <u 0x1\n  6277: t2 = u64 [s1 + 0x100]\n  6281: t2 = t2 + a4\n  6284: a4 = a3 | t2\n  6287: a4 = a4 <u 0x1\n  6290: a1 = u64 [s1 + 0x110]\n  6294: a4 = a4 + a1\n  6297: a1 = a4 <u a1\n  6300: a5 = u64 [s1 + 0xf8]\n  6304: a5 = a5 + a1\n  6307: a1 = u64 [s1 + 0xd8]\n  6311: u64 [s1 + 0x128] = a1\n  6315: u64 [s1 + 0x120] = t1\n  6319: u64 [s1 + 0x130] = ra\n  6323: ra = t0\n  6325: t1 = a2\n  6327: t0 = a0\n  6329: a2 = a4\n  6331: jump @201\n      : @207 (gas: 50)\n  6334: a0 = u64 [s1 + 0xb8]\n  6338: a1 = a0 + 0x40\n  6341: u64 [s1 + 0x138] = a1\n  6345: a2 = a1 <u a0\n  6348: a0 = u64 [s1 + 0xb0]\n  6352: t1 = a0 + a2\n  6355: a3 = t1 <u a0\n  6358: a3 = a2 if a2 == 0\n  6361: a0 = u64 [s1 + 0xa8]\n  6365: t2 = a0 + a3\n  6368: a3 = t2 <u a0\n  6371: a0 = u64 [s1 + 0xc0]\n  6375: a0 = a0 + a3\n  6378: u64 [s1 + 0xc0] = a0\n  6382: a0 = u64 [s1 + 0xc8]\n  6386: ra = a0 + 0x20\n  6389: a4 = ra <u a0\n  6392: a0 = u64 [s1 + 0x98]\n  6396: t0 = a0 + a4\n  6399: a0 = t0 <u a0\n  6402: a0 = a4 if a4 == 0\n  6405: a1 = u64 [s1 + 0xa0]\n  6409: a5 = a1 + a0\n  6412: a4 = a5 <u a1\n  6415: a1 = u64 [s1 + 0xd0]\n  6419: a1 = a1 + a4\n  6422: u64 [s1 + 0xd0] = a1\n  6426: a2 = u64 [s1 + 0x90]\n  6430: a2 = a2 + 0x1\n  6433: a4 = a2 <u 0x1\n  6436: a3 = u64 [s1 + 0x88]\n  6440: a3 = a3 + a4\n  6443: a4 = a2 | a3\n  6446: a4 = a4 <u 0x1\n  6449: a0 = u64 [s1 + 0x78]\n  6452: a4 = a4 + a0\n  6455: a1 = a4 <u a0\n  6458: a0 = u64 [s1 + 0x80]\n  6462: a0 = a0 + a1\n  6465: a1 = u64 [s1 + 0x138]\n  6469: u64 [s1 + 0xb8] = a1\n  6473: u64 [s1 + 0xb0] = t1\n  6477: t1 = a3\n  6479: u64 [s1 + 0xa8] = t2\n  6483: a3 = a0\n  6485: u64 [s1 + 0xc8] = ra\n  6489: ra = a2\n  6491: t2 = t0\n  6493: t0 = a4\n  6495: jump @197\n      : @208 (gas: 6)\n  6498: a1 = a1 | a0\n  6501: a1 = a1 >> 0x20\n  6504: a0 = a0 | a5\n  6507: a0 = a0 << 0x20\n  6510: a0 = a0 | a1\n  6513: jump @215 if a0 != 0\n      : @209 (gas: 12)\n  6517: u64 [s1 + 1488] = 0\n  6521: u64 [s1 + 1480] = 0\n  6525: u64 [s1 + 1472] = 0\n  6529: a0 = 0x8c379a000000000\n  6539: a1 = s1 + 0x5c0\n  6543: u64 [s1 + 0x5d8] = a0\n  6547: a0 = a2\n  6549: u64 [s1 + 0x38] = a2\n  6552: u64 [s1 + 0x30] = a3\n  6555: u64 [s1 + 0x28] = t0\n  6558: u64 [s1 + 0x20] = a5\n  6561: ra = 186, jump @9\n      : @210 [@dyn 93] (gas: 11)\n  6567: a1 = u64 [s1 + 0x38]\n  6570: a0 = u64 [s1 + 0x28]\n  6573: a3 = u64 [s1 + 0x20]\n  6576: a3 = a3 | a0\n  6579: a4 = 0x100000000\n  6589: a0 = 0xfffffffc\n  6599: a0 = a1 <u a0\n  6602: a2 = u64 [s1 + 0x30]\n  6605: a0 = 0 if a2 != 0\n  6607: a0 = 0 if a3 != 0\n  6609: jump @215 if a0 == 0\n      : @211 (gas: 9)\n  6613: i32 a0 = a1 + 0x4\n  6616: u64 [s1 + 1464] = 0\n  6620: u64 [s1 + 1456] = 0\n  6624: u64 [s1 + 1440] = 0x20\n  6629: a1 = s1 + 0x5a0\n  6633: u64 [s1 + 1448] = 0\n  6637: u64 [s1 + 0x138] = a3\n  6641: u64 [s1 + 0x130] = a4\n  6645: ra = 188, jump @9\n      : @212 [@dyn 94] (gas: 9)\n  6651: a3 = u64 [s1 + 0x138]\n  6655: a2 = u64 [s1 + 0x30]\n  6658: a1 = u64 [s1 + 0x38]\n  6661: a0 = u64 [s1 + 0x130]\n  6665: a0 = a0 + 0xffffffffffffffdc\n  6668: a0 = a1 <u a0\n  6671: a0 = 0 if a2 != 0\n  6673: a0 = 0 if a3 != 0\n  6675: jump @215 if a0 == 0\n      : @213 (gas: 7)\n  6678: i32 a0 = a1 + 0x24\n  6681: u64 [s1 + 1432] = 0\n  6685: u64 [s1 + 1424] = 0\n  6689: u64 [s1 + 1408] = 0x13\n  6694: a1 = s1 + 0x580\n  6698: u64 [s1 + 1416] = 0\n  6702: ra = 190, jump @9\n      : @214 [@dyn 95] (gas: 8)\n  6708: a3 = u64 [s1 + 0x38]\n  6711: a0 = 0xffffffbc\n  6721: a0 = a3 <u a0\n  6724: a1 = u64 [s1 + 0x30]\n  6727: a0 = 0 if a1 != 0\n  6729: a1 = u64 [s1 + 0x138]\n  6733: a0 = 0 if a1 != 0\n  6735: jump @271 if a0 != 0\n      : @215 (gas: 1)\n  6739: trap\n      : @216 (gas: 3)\n  6740: a1 = u64 [s1 + 0x38]\n  6743: a0 = a1 + 0xc4\n  6747: t0 = 192, jump @326\n      : @217 [@dyn 96] (gas: 16)\n  6753: a1 = u64 [s1 + 0x48]\n  6756: a5 = s1 + 0x400\n  6760: u64 [a5 + 0xe0] = a1\n  6764: u64 [a5 + 0xc0] = a0\n  6768: a0 = u64 [s1 + 0x50]\n  6771: u64 [a5 + 0xe8] = a0\n  6775: a0 = u64 [s1 + 0x58]\n  6778: u64 [a5 + 0xf0] = a0\n  6782: u64 [a5 + 0xc8] = a2\n  6786: a0 = u64 [s1 + 0x60]\n  6789: u64 [a5 + 0xf8] = a0\n  6793: u64 [a5 + 0xd0] = a3\n  6797: a0 = s1 + 0x4e0\n  6801: a1 = s1 + 0x4c0\n  6805: u64 [a5 + 0xd8] = a4\n  6809: ra = 194, jump @309\n      : @218 [@dyn 97] (gas: 3)\n  6815: a0 = s1 + 0x4a0\n  6819: a1 = u64 [s1 + 0x70]\n  6822: ra = 196, jump @7\n      : @219 [@dyn 98] (gas: 10)\n  6828: a0 = u64 [s1 + 0x20]\n  6831: a1 = u64 [s1 + 0x28]\n  6834: a0 = a0 | a1\n  6837: a1 = 0xfffffefc\n  6847: a2 = u64 [s1 + 0x38]\n  6850: a1 = a2 <u a1\n  6853: a2 = u64 [s1 + 0x30]\n  6856: a1 = 0 if a2 != 0\n  6858: a1 = 0 if a0 != 0\n  6860: jump @215 if a1 == 0\n      : @220 (gas: 13)\n  6863: a5 = s1 + 0x400\n  6867: a2 = u64 [a5 + 0xb8]\n  6871: a1 = u64 [a5 + 0xb0]\n  6875: a3 = u64 [a5 + 0xa8]\n  6879: a4 = u64 [a5 + 0xa0]\n  6883: a0 = u64 [s1 + 0x38]\n  6886: i32 a0 = a0 + 0x104\n  6890: u64 [a5 + 0x80] = a4\n  6894: u64 [a5 + 0x88] = a3\n  6898: u64 [a5 + 0x90] = a1\n  6902: a1 = s1 + 0x480\n  6906: u64 [a5 + 0x98] = a2\n  6910: ra = 198, jump @9\n      : @221 [@dyn 99] (gas: 1)\n  6916: ra = 200, jump @0\n      : @222 [@dyn 100] (gas: 33)\n  6922: a1 = u64 [0x300a0]\n  6927: u64 [s1 + 0x138] = a1\n  6931: a1 = u64 [0x300b0]\n  6936: u64 [s1 + 0x130] = a1\n  6940: a0 = u64 [0x300a8]\n  6945: u64 [s1 + 0x128] = a0\n  6949: ecalli 9 // 'ref_time_left'\n  6951: a0 = u64 [s1 + 0x128]\n  6955: a0 = reverse a0\n  6957: a1 = a0 << 0x20\n  6960: a2 = u64 [s1 + 0x130]\n  6964: a2 = reverse a2\n  6966: a2 = a2 >> 0x20\n  6969: a1 = a1 | a2\n  6972: a0 = a0 >> 0x20\n  6975: a2 = u64 [s1 + 0x138]\n  6979: a2 = reverse a2\n  6981: a3 = a2 << 0x20\n  6984: a0 = a0 | a3\n  6987: a2 = a2 >> 0x20\n  6990: a3 = u64 [s1 + 0x68]\n  6993: u32 [a3 + 0x10] = a2\n  6996: u64 [a3 + 0x8] = a0\n  6999: u64 [a3] = a1\n  7001: a0 = s1 + 0x7ff\n  7005: a0 = a0 + 0xb1\n  7009: u64 [a0 + 776] = 0\n  7013: u64 [a0 + 768] = 0\n  7017: u64 [a0 + 760] = 0\n  7021: u64 [a0 + 752] = 0\n  7025: a1 = 0x124\n  7029: a0 = u64 [s1 + 0x38]\n  7032: ra = 202, jump @15\n      : @223 [@dyn 101] (gas: 4)\n  7038: u64 [s1 + 0x130] = a0\n  7042: a1 = 0x20\n  7045: a0 = u64 [s1 + 0x38]\n  7048: ra = 204, jump @15\n      : @224 [@dyn 102] (gas: 37)\n  7054: u64 [s1 + 312] = 0x20\n  7059: a1 = s1 + 0x7ff\n  7063: a1 = a1 + 0xb1\n  7067: u32 [a1 + 784] = 0x20\n  7072: u64 [a1 + 840] = 0\n  7076: u64 [a1 + 832] = 0\n  7080: u64 [a1 + 824] = 0\n  7084: u64 [a1 + 816] = 0\n  7088: a1 = u64 [s1 + 0x68]\n  7091: a1 = a1 << 0x20\n  7094: a1 = a1 >> 0x20\n  7097: a2 = 0x1800000000\n  7107: t0 = a1 | a2\n  7110: a1 = s1 + 0x7ff\n  7114: a1 = a1 + 0x3a1\n  7118: a1 = a1 << 0x20\n  7121: a1 = a1 >> 0x20\n  7124: a2 = s1 + 0x7ff\n  7128: a2 = a2 + 0x3e1\n  7132: a2 = a2 << 0x20\n  7135: a3 = a2 | a1\n  7138: a1 = u64 [s1 + 0x130]\n  7142: a1 = a1 << 0x20\n  7145: a1 = a1 >> 0x20\n  7148: a2 = 0x12400000000\n  7158: a4 = a1 | a2\n  7161: a0 = a0 << 0x20\n  7164: a0 = a0 >> 0x20\n  7167: a1 = s1 + 0x7ff\n  7171: a1 = a1 + 0x3c1\n  7175: a1 = a1 << 0x20\n  7178: a5 = a1 | a0\n  7181: a1 = 0xffffffffffffffff\n  7184: a2 = 0xffffffffffffffff\n  7187: a0 = t0\n  7189: ecalli 0 // 'call'\n  7190: fallthrough\n      : @225 (gas: 1)\n  7191: jump @246 if a0 != 0\n      : @226 (gas: 2)\n  7195: ecalli 11 // 'return_data_size'\n  7197: fallthrough\n      : @227 (gas: 1)\n  7198: jump @229 if a0 >=u 32\n      : @228 (gas: 3)\n  7202: ecalli 11 // 'return_data_size'\n  7204: u64 [s1 + 0x138] = a0\n  7208: fallthrough\n      : @229 (gas: 18)\n  7209: a0 = u64 [s1 + 0x138]\n  7213: a3 = s1 + 0x400\n  7217: u64 [a3 + 0x20] = a0\n  7220: a0 = u64 [s1 + 0x38]\n  7223: u64 [a3 + 0x40] = a0\n  7226: u64 [s1 + 304] = 0\n  7230: u64 [s1 + 1064] = 0\n  7234: a0 = u64 [s1 + 0x30]\n  7237: u64 [a3 + 0x48] = a0\n  7240: u64 [s1 + 1072] = 0\n  7244: a0 = u64 [s1 + 0x20]\n  7247: u64 [a3 + 0x50] = a0\n  7250: u64 [s1 + 1080] = 0\n  7254: a0 = s1 + 0x440\n  7258: a1 = s1 + 0x420\n  7262: a2 = u64 [s1 + 0x28]\n  7265: u64 [a3 + 0x58] = a2\n  7268: ra = 206, jump @287\n      : @230 [@dyn 103] (gas: 12)\n  7274: a3 = u64 [s1 + 0x130]\n  7278: a0 = a3 >u 0\n  7280: a1 = u64 [s1 + 0x138]\n  7284: a1 = a1 <u 0x20\n  7287: a1 = a1 ^ 0x1\n  7290: a1 = a0 if a3 != 0\n  7293: a0 = a3 >u 0\n  7295: a2 = a3 >u 0\n  7297: a2 = a0 if a3 == 0\n  7300: a0 = a3 | a3\n  7303: a2 = a1 if a0 == 0\n  7306: jump @274 if a2 == 0\n      : @231 (gas: 3)\n  7310: a0 = s1 + 0x400\n  7314: a1 = u64 [s1 + 0x38]\n  7317: ra = 208, jump @7\n      : @232 [@dyn 104] (gas: 10)\n  7323: a4 = s1 + 0x400\n  7327: a0 = u64 [a4 + 0x18]\n  7330: a1 = u64 [a4 + 0x10]\n  7333: a2 = u64 [a4]\n  7335: a3 = u64 [a4 + 0x8]\n  7338: a4 = a1 | a0\n  7341: a5 = a2 <u 0x2\n  7344: a5 = 0 if a3 != 0\n  7346: a5 = 0 if a4 != 0\n  7348: jump @275 if a5 == 0\n      : @233 (gas: 4)\n  7352: a1 = a1 | a2\n  7355: a0 = a0 | a3\n  7358: a0 = a0 | a1\n  7361: jump @276 if a0 != 0\n      : @234 (gas: 3)\n  7365: a0 = s1 + 0x360\n  7369: a1 = 0x40\n  7372: ra = 210, jump @7\n      : @235 [@dyn 105] (gas: 18)\n  7378: a4 = s1 + 0x300\n  7382: a2 = u64 [a4 + 0x78]\n  7385: a3 = u64 [a4 + 0x70]\n  7388: a0 = u64 [a4 + 0x68]\n  7391: a1 = u64 [a4 + 0x60]\n  7394: a4 = s1 + 0x100\n  7398: u64 [a4 + 0x30] = a0\n  7401: u64 [a4 + 0x28] = a2\n  7404: a0 = a0 | a2\n  7407: u64 [a4 + 0x38] = a1\n  7410: a1 = a1 | a3\n  7413: a1 = a1 | a0\n  7416: a1 = a1 >> 0x20\n  7419: u64 [a4 + 0x20] = a3\n  7422: a0 = a0 | a3\n  7425: a0 = a0 << 0x20\n  7428: a0 = a0 | a1\n  7431: jump @215 if a0 != 0\n      : @236 (gas: 8)\n  7435: u64 [s1 + 848] = 0\n  7439: u64 [s1 + 840] = 0\n  7443: u64 [s1 + 832] = 0\n  7447: a0 = 0x8c379a000000000\n  7457: a1 = s1 + 0x340\n  7461: u64 [s1 + 0x358] = a0\n  7465: a0 = u64 [s1 + 0x138]\n  7469: ra = 212, jump @9\n      : @237 [@dyn 106] (gas: 14)\n  7475: a3 = s1 + 0x100\n  7479: a0 = u64 [a3 + 0x28]\n  7482: a2 = u64 [a3 + 0x20]\n  7485: a2 = a2 | a0\n  7488: a0 = 0x100000000\n  7498: u64 [a3 + 0x20] = a0\n  7501: a0 = 0xfffffffc\n  7511: a1 = u64 [a3 + 0x38]\n  7514: a0 = a1 <u a0\n  7517: a1 = u64 [a3 + 0x30]\n  7520: a0 = 0 if a1 != 0\n  7522: u64 [a3 + 0x28] = a2\n  7525: a0 = 0 if a2 != 0\n  7527: jump @215 if a0 == 0\n      : @238 (gas: 8)\n  7531: a0 = u64 [s1 + 0x138]\n  7535: i32 a0 = a0 + 0x4\n  7538: u64 [s1 + 824] = 0\n  7542: u64 [s1 + 816] = 0\n  7546: u64 [s1 + 800] = 0x20\n  7551: a1 = s1 + 0x320\n  7555: u64 [s1 + 808] = 0\n  7559: ra = 214, jump @9\n      : @239 [@dyn 107] (gas: 10)\n  7565: a2 = s1 + 0x100\n  7569: a0 = u64 [a2 + 0x20]\n  7572: a0 = a0 + 0xffffffffffffffdc\n  7575: a1 = u64 [a2 + 0x38]\n  7578: a0 = a1 <u a0\n  7581: a1 = u64 [a2 + 0x30]\n  7584: a0 = 0 if a1 != 0\n  7586: a1 = u64 [a2 + 0x28]\n  7589: a0 = 0 if a1 != 0\n  7591: jump @215 if a0 == 0\n      : @240 (gas: 8)\n  7595: a0 = u64 [s1 + 0x138]\n  7599: i32 a0 = a0 + 0x24\n  7602: u64 [s1 + 792] = 0\n  7606: u64 [s1 + 784] = 0\n  7610: u64 [s1 + 768] = 0xd\n  7615: a1 = s1 + 0x300\n  7619: u64 [s1 + 776] = 0\n  7623: ra = 216, jump @9\n      : @241 [@dyn 108] (gas: 9)\n  7629: a0 = 0xffffffbc\n  7639: a2 = s1 + 0x100\n  7643: a1 = u64 [a2 + 0x38]\n  7646: a0 = a1 <u a0\n  7649: a1 = u64 [a2 + 0x30]\n  7652: a0 = 0 if a1 != 0\n  7654: a1 = u64 [a2 + 0x28]\n  7657: a0 = 0 if a1 != 0\n  7659: jump @215 if a0 == 0\n      : @242 (gas: 10)\n  7663: a0 = u64 [s1 + 0x138]\n  7667: i32 a0 = a0 + 0x44\n  7670: a1 = u64 [0x20060]\n  7675: u64 [s1 + 744] = 0\n  7679: u64 [s1 + 0x2f8] = a1\n  7683: a1 = 0x70726f6f66000000\n  7693: u64 [s1 + 0x2f0] = a1\n  7697: a1 = s1 + 0x2e0\n  7701: u64 [s1 + 736] = 0\n  7705: ra = 218, jump @9\n      : @243 [@dyn 109] (gas: 4)\n  7711: a1 = 0x64\n  7714: a0 = u64 [s1 + 0x138]\n  7718: ra = 0xe4\n  7722: jump @15\n      : @244 (gas: 6)\n  7725: a1 = 0x20080\n  7730: i32 a1 = a1 + 0\n  7732: a0 = 0x1\n  7735: a2 = 0\n  7737: ecalli 12 // 'seal_return'\n  7739: jump @246\n      : @245 (gas: 5)\n  7741: i32 a1 = a1 + 0\n  7743: a0 = 0x1\n  7746: a2 = 0\n  7748: ecalli 12 // 'seal_return'\n  7750: fallthrough\n      : @246 (gas: 3)\n  7751: a0 = s1 + 0x460\n  7755: a1 = 0x40\n  7758: ra = 220, jump @7\n      : @247 [@dyn 110] (gas: 11)\n  7764: a1 = s1 + 0x400\n  7768: a0 = u64 [a1 + 0x78]\n  7771: u64 [s1 + 0x130] = a0\n  7775: a0 = u64 [a1 + 0x70]\n  7778: u64 [s1 + 0x128] = a0\n  7782: a0 = u64 [a1 + 0x68]\n  7785: u64 [s1 + 0x120] = a0\n  7789: a0 = u64 [a1 + 0x60]\n  7792: u64 [s1 + 0x138] = a0\n  7796: ecalli 11 // 'return_data_size'\n  7798: fallthrough\n      : @248 (gas: 13)\n  7799: a4 = s1 + 0x100\n  7803: a1 = u64 [a4 + 0x30]\n  7806: a2 = u64 [a4 + 0x20]\n  7809: a1 = a1 | a2\n  7812: a3 = u64 [a4 + 0x28]\n  7815: a2 = u64 [a4 + 0x38]\n  7818: a2 = a2 | a3\n  7821: a2 = a2 | a1\n  7824: a2 = a2 >> 0x20\n  7827: a1 = a1 | a3\n  7830: a1 = a1 << 0x20\n  7833: a1 = a1 | a2\n  7836: jump @215 if a1 != 0\n      : @249 (gas: 2)\n  7840: a1 = a0 >> 0x20\n  7843: jump @215 if a1 != 0\n      : @250 (gas: 6)\n  7847: a1 = a0\n  7849: u64 [s1 + 0x128] = a0\n  7853: i32 a0 = a0 + 0\n  7855: u64 [s1 + 0x130] = a0\n  7859: a0 = u64 [s1 + 0x138]\n  7863: ra = 222, jump @15\n      : @251 [@dyn 111] (gas: 10)\n  7869: a1 = s1 + 0x7ff\n  7873: a1 = a1 + 0xb1\n  7877: a2 = u64 [s1 + 0x128]\n  7881: u32 [a1 + 0x350] = a2\n  7885: i32 a0 = a0 + 0\n  7887: a1 = s1 + 0x1000\n  7891: i32 a1 = a1 + 0xfffffffffffffc00\n  7895: a2 = 0\n  7897: ecalli 10 // 'return_data_copy'\n  7899: fallthrough\n      : @252 (gas: 5)\n  7900: a0 = s1 + 0x7ff\n  7904: a0 = a0 + 0xb1\n  7908: a0 = i32 [a0 + 0x350]\n  7912: a1 = u64 [s1 + 0x130]\n  7916: jump @215 if a0 <u a1\n      : @253 (gas: 2)\n  7920: ecalli 11 // 'return_data_size'\n  7922: fallthrough\n      : @254 (gas: 3)\n  7923: a1 = a0\n  7925: a0 = a0 >> 0x20\n  7928: jump @215 if a0 != 0\n      : @255 (gas: 3)\n  7932: a0 = u64 [s1 + 0x138]\n  7936: u64 [s1 + 0x130] = a1\n  7940: ra = 224, jump @15\n      : @256 [@dyn 112] (gas: 6)\n  7946: i32 a1 = a0 + 0\n  7948: a2 = i32 [s1 + 0x130]\n  7952: a0 = 0x1\n  7955: ecalli 12 // 'seal_return'\n  7957: a1 = 0x20080\n  7962: jump @245\n      : @257 (gas: 2)\n  7965: a1 = 0x20080\n  7970: jump @245\n      : @258 (gas: 2)\n  7973: a1 = 0x20080\n  7978: jump @245\n      : @259 (gas: 2)\n  7981: a1 = 0x20080\n  7986: jump @245\n      : @260 (gas: 2)\n  7989: a1 = 0x20080\n  7994: jump @245\n      : @261 (gas: 2)\n  7997: a1 = 0x20080\n  8002: jump @245\n      : @262 (gas: 2)\n  8005: a1 = 0x20080\n  8010: jump @245\n      : @263 (gas: 2)\n  8013: a1 = 0x20080\n  8018: jump @245\n      : @264 (gas: 2)\n  8021: a1 = 0x20080\n  8026: jump @245\n      : @265 (gas: 2)\n  8029: a1 = 0x20080\n  8034: jump @245\n      : @266 (gas: 2)\n  8037: a1 = 0x20080\n  8042: jump @245\n      : @267 (gas: 2)\n  8045: a1 = 0x20080\n  8050: jump @245\n      : @268 (gas: 2)\n  8053: a1 = 0x20080\n  8058: jump @245\n      : @269 (gas: 2)\n  8061: a1 = 0x20080\n  8066: jump @245\n      : @270 (gas: 2)\n  8069: a1 = 0x20080\n  8074: jump @245\n      : @271 (gas: 11)\n  8077: i32 a0 = a3 + 0x44\n  8080: a1 = u64 [0x20030]\n  8085: a2 = u64 [0x20038]\n  8090: a3 = s1 + 0x500\n  8094: u64 [a3 + 0x78] = a1\n  8097: u64 [a3 + 0x70] = a2\n  8100: a1 = 0x7463680000000000\n  8110: u64 [a3 + 0x68] = a1\n  8113: a1 = s1 + 0x560\n  8117: u64 [s1 + 1376] = 0\n  8121: ra = 226, jump @9\n      : @272 [@dyn 113] (gas: 3)\n  8127: a1 = 0x64\n  8130: a0 = u64 [s1 + 0x38]\n  8133: ra = 228, jump @15\n      : @273 [@dyn 114] (gas: 5)\n  8139: i32 a1 = a0 + 0\n  8141: a0 = 0x1\n  8144: a2 = 0x64\n  8147: ecalli 12 // 'seal_return'\n  8149: fallthrough\n      : @274 (gas: 6)\n  8150: a1 = 0x20080\n  8155: i32 a1 = a1 + 0\n  8157: a0 = 0x1\n  8160: ecalli 12 // 'seal_return'\n  8162: a1 = 0x20080\n  8167: jump @245\n      : @275 (gas: 2)\n  8170: a1 = 0x20080\n  8175: jump @245\n      : @276 (gas: 5)\n  8178: a0 = u64 [s1 + 0x40]\n  8181: ra = 0xe6\n  8185: ecalli 4 // 'caller'\n  8187: t0 = 0xe8\n  8191: jump @320\n      : @277 [@dyn 115] (gas: 1)\n  8194: t0 = 232, jump @320\n      : @278 [@dyn 116] (gas: 7)\n  8200: u64 [s1 + 1016] = 0\n  8204: u64 [s1 + 0x3f0] = a1\n  8208: u64 [s1 + 0x3e8] = a0\n  8212: a1 = s1 + 0x3e0\n  8216: u64 [s1 + 0x3e0] = a3\n  8220: a0 = 0\n  8222: ra = 234, jump @9\n      : @279 [@dyn 117] (gas: 7)\n  8228: u64 [s1 + 984] = 0\n  8232: u64 [s1 + 976] = 0\n  8236: u64 [s1 + 968] = 0\n  8240: a0 = 0x20\n  8243: a1 = s1 + 0x3c0\n  8247: u64 [s1 + 960] = 0\n  8251: ra = 236, jump @9\n      : @280 [@dyn 118] (gas: 3)\n  8257: a1 = 0x40\n  8260: a0 = 0\n  8262: ra = 238, jump @15\n      : @281 [@dyn 119] (gas: 1)\n  8268: t0 = 240, jump @325\n      : @282 [@dyn 120] (gas: 26)\n  8274: ecalli 8 // 'hash_keccak_256'\n  8276: a3 = u64 [s1 + 0x138]\n  8280: a0 = u64 [a3 + 0x18]\n  8283: a1 = u64 [a3 + 0x10]\n  8286: a2 = u64 [a3 + 0x8]\n  8289: a3 = u64 [a3]\n  8291: a0 = reverse a0\n  8293: a1 = reverse a1\n  8295: a2 = reverse a2\n  8297: a3 = reverse a3\n  8299: a4 = s1 + 0x7ff\n  8303: a4 = a4 + 0xb1\n  8307: a5 = a4 + 0x300\n  8311: u64 [a5 + 0x88] = a3\n  8315: u64 [a5 + 0x80] = a2\n  8319: u64 [a5 + 0x78] = a1\n  8322: u64 [a5 + 0x70] = a0\n  8325: u64 [a4 + 936] = 0\n  8329: u64 [a4 + 928] = 0\n  8333: u64 [a4 + 920] = 0\n  8337: u64 [a4 + 912] = 0\n  8341: a0 = s1 + 0x7ff\n  8345: a0 = a0 + 0x421\n  8349: a1 = s1 + 0x7ff\n  8353: a1 = a1 + 0x441\n  8357: ra = 242, jump @12\n      : @283 [@dyn 121] (gas: 6)\n  8363: a0 = u64 [s1 + 0x40]\n  8366: ra = 0xf4\n  8370: ecalli 4 // 'caller'\n  8372: a2 = u64 [s1 + 0x68]\n  8375: t0 = 0xf6\n  8379: jump @328\n      : @284 [@dyn 122] (gas: 2)\n  8382: a2 = u64 [s1 + 0x68]\n  8385: t0 = 246, jump @328\n      : @285 [@dyn 123] (gas: 24)\n  8391: t0 = a1 | a0\n  8394: a3 = a3 >> 0x20\n  8397: a1 = reverse a2\n  8399: a2 = a1 << 0x20\n  8402: a2 = a2 | a3\n  8405: a1 = a1 >> 0x20\n  8408: u64 [s1 + 920] = 0\n  8412: a3 = u64 [0x20040]\n  8417: a4 = u64 [0x20048]\n  8422: a5 = u64 [0x20050]\n  8427: a0 = u64 [0x20058]\n  8432: u64 [s1 + 0x3b8] = a3\n  8436: a3 = s1 + 0x300\n  8440: u64 [a3 + 0xb0] = a4\n  8444: u64 [a3 + 0xa8] = a5\n  8448: u64 [a3 + 0xa0] = a0\n  8452: u64 [a3 + 0x90] = a1\n  8456: u64 [a3 + 0x88] = a2\n  8460: a2 = s1 + 0x3a0\n  8464: a3 = s1 + 0x380\n  8468: u64 [s1 + 0x380] = t0\n  8472: a0 = 0\n  8474: a1 = 0\n  8476: ra = 248, jump @13\n      : @286 [@dyn 124] (gas: 6)\n  8482: a1 = 0x20080\n  8487: i32 a1 = a1 + 0\n  8489: a0 = 0\n  8491: a2 = 0\n  8493: ecalli 12 // 'seal_return'\n  8495: jump @246\n      : @287 (gas: 46)\n  8498: sp = sp + 0xffffffffffffff70\n  8502: u64 [sp + 0x88] = ra\n  8506: u64 [sp + 0x80] = s0\n  8510: u64 [sp + 0x78] = s1\n  8513: s0 = sp + 0x90\n  8517: sp = sp & 0xfffffffffffffff0\n  8520: t0 = a0\n  8522: a2 = u64 [a1]\n  8524: t2 = u64 [a0 + 0x8]\n  8527: a5 = u64 [a1 + 0x8]\n  8530: t1 = u64 [a0]\n  8532: a3 = a2 + 0x1f\n  8535: ra = a3 <u a2\n  8538: a2 = a5 + ra\n  8541: a3 = a3 & 0xffffffffffffffe0\n  8544: u64 [sp + 0x8] = t1\n  8547: t1 = t1 + a3\n  8550: a4 = t1 <u a3\n  8553: a3 = a2 + t2\n  8556: a3 = a3 + a4\n  8559: s1 = a3 ^ a2\n  8562: a0 = a3 <u a2\n  8565: a0 = a4 if s1 == 0\n  8568: a4 = u64 [t0 + 0x18]\n  8571: a5 = a2 <u a5\n  8574: s1 = u64 [a1 + 0x10]\n  8577: t0 = u64 [t0 + 0x10]\n  8580: a1 = u64 [a1 + 0x18]\n  8583: a5 = ra if ra == 0\n  8586: a5 = a5 + s1\n  8589: s1 = a5 <u s1\n  8592: a2 = a5 + t0\n  8595: a0 = a0 + a2\n  8598: a5 = a2 <u a5\n  8601: a2 = a0 <u a2\n  8604: a1 = a1 + a4\n  8607: a1 = a1 + s1\n  8610: a1 = a1 + a5\n  8613: a5 = a1 + a2\n  8616: a1 = a5 >u 0\n  8618: a2 = a0 >u 0\n  8620: a2 = a1 if a5 != 0\n  8623: a1 = a0 | a5\n  8626: s1 = a3 >u 0\n  8628: s1 = a2 if a1 != 0\n  8631: jump @291 if s1 != 0\n      : @288 (gas: 13)\n  8634: a1 = u64 [sp + 0x8]\n  8637: a1 = t1 <u a1\n  8640: a2 = a3 ^ t2\n  8643: s1 = a3 <u t2\n  8646: s1 = a1 if a2 == 0\n  8649: a1 = a0 <u t0\n  8652: a2 = a5 ^ a4\n  8655: a4 = a5 <u a4\n  8658: a4 = a1 if a2 == 0\n  8661: a1 = a0 ^ t0\n  8664: a1 = a1 | a2\n  8667: a4 = s1 if a1 == 0\n  8670: jump @291 if a4 != 0\n      : @289 (gas: 7)\n  8673: u64 [sp + 0x50] = t1\n  8676: u64 [sp + 0x58] = a3\n  8679: u64 [sp + 0x60] = a0\n  8682: a0 = 0x40\n  8685: a1 = sp + 0x50\n  8688: u64 [sp + 0x68] = a5\n  8691: ra = 250, jump @9\n      : @290 [@dyn 125] (gas: 6)\n  8697: sp = s0 + 0xffffffffffffff70\n  8701: ra = u64 [sp + 0x88]\n  8705: s0 = u64 [sp + 0x80]\n  8709: s1 = u64 [sp + 0x78]\n  8712: sp = sp + 0x90\n  8716: ret\n      : @291 (gas: 8)\n  8718: u64 [sp + 64] = 0\n  8721: u64 [sp + 56] = 0\n  8724: u64 [sp + 48] = 0\n  8727: a0 = 0x4e487b7100000000\n  8737: a1 = sp + 0x30\n  8740: u64 [sp + 0x48] = a0\n  8743: a0 = 0\n  8745: ra = 252, jump @9\n      : @292 [@dyn 126] (gas: 7)\n  8751: u64 [sp + 40] = 0\n  8754: u64 [sp + 32] = 0\n  8757: u64 [sp + 16] = 0x41\n  8761: a0 = 0x4\n  8764: a1 = sp + 0x10\n  8767: u64 [sp + 24] = 0\n  8770: ra = 254, jump @9\n      : @293 [@dyn 127] (gas: 2)\n  8776: a1 = i32 [0x20078]\n  8781: jump @295 if a1 >u 63\n      : @294 (gas: 2)\n  8785: u32 [0x20078] = 0x40\n  8791: fallthrough\n      : @295 (gas: 7)\n  8792: a1 = 0x20080\n  8797: i32 a1 = a1 + 0\n  8799: a0 = 0x1\n  8802: a2 = 0x24\n  8805: ra = 0x100\n  8809: ecalli 12 // 'seal_return'\n  8811: fallthrough\n      : @296 [@dyn 128] (gas: 25)\n  8812: sp = sp + 0xfffffffffffffea0\n  8816: u64 [sp + 0x158] = ra\n  8820: u64 [sp + 0x150] = s0\n  8824: u64 [sp + 0x148] = s1\n  8828: s0 = sp + 0x160\n  8832: sp = sp & 0xffffffffffffffe0\n  8835: a3 = u64 [a2 + 0x8]\n  8838: u64 [sp + 0x68] = a3\n  8841: a3 = u64 [a2]\n  8843: u64 [sp + 0x88] = a3\n  8847: a3 = u64 [a2 + 0x18]\n  8850: u64 [sp + 0x98] = a3\n  8854: a2 = u64 [a2 + 0x10]\n  8857: u64 [sp + 0x90] = a2\n  8861: s1 = u64 [a1 + 0x18]\n  8864: a2 = u64 [a1 + 0x10]\n  8867: u64 [sp + 0x80] = a2\n  8871: a2 = u64 [a1 + 0x8]\n  8874: u64 [sp + 0x78] = a2\n  8877: a1 = u64 [a1]\n  8879: u64 [sp + 0x70] = a1\n  8882: u64 [sp + 0x18] = a0\n  8885: a0 = sp + 0x100\n  8889: a1 = 0x40\n  8892: ra = 258, jump @7\n      : @297 [@dyn 129] (gas: 19)\n  8898: a0 = u64 [sp + 0x118]\n  8902: a1 = u64 [sp + 0x110]\n  8906: a2 = u64 [sp + 0x108]\n  8910: a3 = u64 [sp + 0x100]\n  8914: u64 [sp + 216] = 0\n  8918: u64 [sp + 208] = 0\n  8922: u64 [sp + 200] = 0\n  8926: u64 [sp + 192] = 0x40\n  8931: u64 [sp + 0x28] = a0\n  8934: u64 [sp + 0xf8] = a0\n  8938: u64 [sp + 0x58] = a1\n  8941: u64 [sp + 0xf0] = a1\n  8945: u64 [sp + 0x50] = a2\n  8948: u64 [sp + 0xe8] = a2\n  8952: a0 = sp + 0xe0\n  8956: a1 = sp + 0xc0\n  8960: u64 [sp + 0x20] = a3\n  8963: u64 [sp + 0xe0] = a3\n  8967: ra = 260, jump @287\n      : @298 [@dyn 130] (gas: 32)\n  8973: t2 = u64 [sp + 0x70]\n  8976: a4 = u64 [sp + 0x78]\n  8979: a5 = u64 [sp + 0x80]\n  8983: t1 = s1\n  8985: a2 = t2 + 0x40\n  8988: a0 = a2 <u t2\n  8991: a3 = a4 + a0\n  8994: a1 = a3 <u a4\n  8997: a1 = a0 if a0 == 0\n  9000: a1 = a1 + a5\n  9003: a0 = a1 <u a5\n  9006: a0 = a0 + s1\n  9009: u64 [sp + 0x48] = a2\n  9012: s1 = u64 [sp + 0x88]\n  9016: t0 = s1 <u a2\n  9019: a2 = u64 [sp + 0x68]\n  9022: s1 = a3 ^ a2\n  9025: u64 [sp + 0x40] = a3\n  9028: a2 = a2 <u a3\n  9031: a2 = t0 if s1 == 0\n  9034: ra = u64 [sp + 0x90]\n  9038: t0 = ra <u a1\n  9041: a3 = u64 [sp + 0x98]\n  9045: s1 = a0 ^ a3\n  9048: u64 [sp + 0x30] = a0\n  9051: a3 = a3 <u a0\n  9054: a3 = t0 if s1 == 0\n  9057: u64 [sp + 0x38] = a1\n  9060: a0 = a1 ^ ra\n  9063: a0 = a0 | s1\n  9066: a2 = a3 if a0 != 0\n  9069: jump @308 if a2 != 0\n      : @299 (gas: 9)\n  9073: a0 = u64 [sp + 0x20]\n  9076: u64 [sp + 0x98] = a0\n  9080: s1 = u64 [sp + 0x50]\n  9083: u64 [sp + 0x88] = s1\n  9087: ra = u64 [sp + 0x58]\n  9090: u64 [sp + 0x68] = ra\n  9093: a0 = u64 [sp + 0x28]\n  9096: u64 [sp + 0x90] = a0\n  9100: fallthrough\n      : @300 (gas: 16)\n  9101: a0 = u64 [sp + 0x48]\n  9104: a0 = t2 <u a0\n  9107: a2 = u64 [sp + 0x40]\n  9110: a1 = a4 ^ a2\n  9113: a2 = a4 <u a2\n  9116: a2 = a0 if a1 == 0\n  9119: a0 = u64 [sp + 0x38]\n  9122: t0 = a5 <u a0\n  9125: a3 = u64 [sp + 0x30]\n  9128: a1 = t1 ^ a3\n  9131: a3 = t1 <u a3\n  9134: a3 = t0 if a1 == 0\n  9137: a0 = a0 ^ a5\n  9140: a0 = a0 | a1\n  9143: a3 = a2 if a0 == 0\n  9146: jump @306 if a3 == 0\n      : @301 (gas: 11)\n  9150: a0 = t2 | a5\n  9153: u64 [sp + 0x60] = t1\n  9156: u64 [sp + 0x78] = a4\n  9159: a1 = a4 | t1\n  9162: a0 = a0 | a1\n  9165: a0 = a0 >> 0x20\n  9168: u64 [sp + 0x80] = a5\n  9172: a1 = a1 | a5\n  9175: a1 = a1 << 0x20\n  9178: a0 = a0 | a1\n  9181: jump @307 if a0 != 0\n      : @302 (gas: 5)\n  9185: i32 a1 = t2 + 0\n  9187: i32 a0 = sp + 0x120\n  9191: u64 [sp + 0x70] = t2\n  9194: ecalli 2 // 'call_data_load'\n  9196: fallthrough\n      : @303 (gas: 12)\n  9197: s1 = u64 [sp + 0x68]\n  9200: a0 = u64 [sp + 0x98]\n  9204: a2 = a0 | s1\n  9207: a1 = u64 [sp + 0x90]\n  9211: a3 = u64 [sp + 0x88]\n  9215: a1 = a1 | a3\n  9218: a2 = a2 | a1\n  9221: a2 = a2 >> 0x20\n  9224: a1 = a1 | s1\n  9227: a1 = a1 << 0x20\n  9230: a1 = a1 | a2\n  9233: jump @307 if a1 != 0\n      : @304 (gas: 11)\n  9237: a4 = u64 [sp + 0x120]\n  9241: a1 = u64 [sp + 0x128]\n  9245: a2 = u64 [sp + 0x130]\n  9249: a3 = u64 [sp + 0x138]\n  9253: u64 [sp + 0xb8] = a3\n  9257: u64 [sp + 0xb0] = a2\n  9261: u64 [sp + 0xa8] = a1\n  9265: a1 = sp + 0xa0\n  9269: u64 [sp + 0xa0] = a4\n  9273: u64 [sp + 0x98] = a0\n  9277: ra = 262, jump @9\n      : @305 [@dyn 131] (gas: 33)\n  9283: a0 = u64 [sp + 0x98]\n  9287: t0 = a0 + 0x20\n  9290: a1 = t0 <u a0\n  9293: a0 = u64 [sp + 0x88]\n  9297: a2 = a0 + a1\n  9300: a3 = a2 <u a0\n  9303: a3 = a1 if a1 == 0\n  9306: a3 = a3 + s1\n  9309: a1 = a3 <u s1\n  9312: a0 = u64 [sp + 0x90]\n  9316: a0 = a0 + a1\n  9319: u64 [sp + 0x90] = a0\n  9323: a0 = u64 [sp + 0x70]\n  9326: a1 = a0 + 0x20\n  9329: a4 = a1 <u a0\n  9332: s1 = u64 [sp + 0x78]\n  9335: a5 = s1 + a4\n  9338: s1 = a5 <u s1\n  9341: s1 = a4 if a4 == 0\n  9344: a0 = u64 [sp + 0x80]\n  9348: s1 = s1 + a0\n  9351: a4 = s1 <u a0\n  9354: a0 = u64 [sp + 0x60]\n  9357: t1 = a0 + a4\n  9360: t2 = a1\n  9362: a4 = a5\n  9364: a5 = s1\n  9366: u64 [sp + 0x98] = t0\n  9370: u64 [sp + 0x88] = a2\n  9374: u64 [sp + 0x68] = a3\n  9377: ra = u64 [sp + 0x58]\n  9380: s1 = u64 [sp + 0x50]\n  9383: jump @300\n      : @306 (gas: 13)\n  9386: a0 = u64 [sp + 0x18]\n  9389: a1 = u64 [sp + 0x20]\n  9392: u64 [a0] = a1\n  9394: u64 [a0 + 0x8] = s1\n  9397: u64 [a0 + 0x10] = ra\n  9400: a1 = u64 [sp + 0x28]\n  9403: u64 [a0 + 0x18] = a1\n  9406: sp = s0 + 0xfffffffffffffea0\n  9410: ra = u64 [sp + 0x158]\n  9414: s0 = u64 [sp + 0x150]\n  9418: s1 = u64 [sp + 0x148]\n  9422: sp = sp + 0x160\n  9426: ret\n      : @307 (gas: 1)\n  9428: trap\n      : @308 (gas: 7)\n  9429: a1 = 0x20080\n  9434: i32 a1 = a1 + 0\n  9436: a0 = 0x1\n  9439: a2 = 0\n  9441: ra = 0x108\n  9445: ecalli 12 // 'seal_return'\n  9447: fallthrough\n      : @309 [@dyn 132] (gas: 24)\n  9448: sp = sp + 0xffffffffffffff40\n  9452: u64 [sp + 0xb8] = ra\n  9456: u64 [sp + 0xb0] = s0\n  9460: u64 [sp + 0xa8] = s1\n  9464: s0 = sp + 0xc0\n  9468: sp = sp & 0xfffffffffffffff0\n  9471: a2 = u64 [a1 + 0x18]\n  9474: u64 [sp + 0x48] = a2\n  9477: a2 = u64 [a1 + 0x10]\n  9480: u64 [sp + 0x38] = a2\n  9483: a2 = u64 [a1 + 0x8]\n  9486: u64 [sp + 0x40] = a2\n  9489: a1 = u64 [a1]\n  9491: u64 [sp + 0x58] = a1\n  9494: a1 = u64 [a0 + 0x18]\n  9497: u64 [sp + 0x50] = a1\n  9500: t0 = u64 [a0 + 0x10]\n  9503: t2 = u64 [a0 + 0x8]\n  9506: ra = u64 [a0]\n  9508: a3 = 0\n  9510: a5 = 0\n  9512: t1 = 0\n  9514: a4 = 0\n  9516: fallthrough\n      : @310 (gas: 10)\n  9517: a0 = a5 >u 0\n  9519: a1 = a3 <u 0x2\n  9522: a1 = a1 ^ 0x1\n  9525: a1 = a0 if a5 != 0\n  9528: a0 = t1 >u 0\n  9530: a2 = a4 >u 0\n  9532: a2 = a0 if a4 == 0\n  9535: a0 = t1 | a4\n  9538: a2 = a1 if a0 == 0\n  9541: jump @316 if a2 != 0\n      : @311 (gas: 16)\n  9545: u64 [sp + 0x8] = t1\n  9548: u64 [sp + 0x18] = a4\n  9551: s1 = u64 [sp + 0x38]\n  9554: u64 [sp + 0x20] = a5\n  9557: u64 [sp + 0x30] = a3\n  9560: a0 = ra | t0\n  9563: u64 [sp + 0x10] = t2\n  9566: a2 = u64 [sp + 0x50]\n  9569: a2 = t2 | a2\n  9572: a0 = a0 | a2\n  9575: a0 = a0 >> 0x20\n  9578: u64 [sp + 0x28] = t0\n  9581: a2 = a2 | t0\n  9584: a2 = a2 << 0x20\n  9587: a0 = a0 | a2\n  9590: jump @317 if a0 != 0\n      : @312 (gas: 4)\n  9594: a0 = sp + 0x80\n  9598: a1 = ra\n  9600: u64 [sp] = ra\n  9602: ra = 266, jump @7\n      : @313 [@dyn 133] (gas: 11)\n  9608: a0 = u64 [sp + 0x58]\n  9611: a2 = a0 | s1\n  9614: a1 = u64 [sp + 0x48]\n  9617: a3 = u64 [sp + 0x40]\n  9620: a1 = a1 | a3\n  9623: a2 = a2 | a1\n  9626: a2 = a2 >> 0x20\n  9629: a1 = a1 | s1\n  9632: a1 = a1 << 0x20\n  9635: a1 = a1 | a2\n  9638: jump @317 if a1 != 0\n      : @314 (gas: 11)\n  9642: a4 = u64 [sp + 0x98]\n  9646: a1 = u64 [sp + 0x90]\n  9650: a2 = u64 [sp + 0x88]\n  9654: a3 = u64 [sp + 0x80]\n  9658: u64 [sp + 0x60] = a3\n  9661: u64 [sp + 0x68] = a2\n  9664: u64 [sp + 0x70] = a1\n  9667: a1 = sp + 0x60\n  9670: u64 [sp + 0x78] = a4\n  9673: u64 [sp + 0x58] = a0\n  9676: ra = 268, jump @9\n      : @315 [@dyn 134] (gas: 44)\n  9682: a0 = u64 [sp + 0x58]\n  9685: t0 = a0 + 0x20\n  9688: a2 = t0 <u a0\n  9691: a0 = u64 [sp + 0x40]\n  9694: t2 = a0 + a2\n  9697: a3 = t2 <u a0\n  9700: a3 = a2 if a2 == 0\n  9703: ra = s1 + a3\n  9706: a2 = ra <u s1\n  9709: a0 = u64 [sp + 0x48]\n  9712: a0 = a0 + a2\n  9715: u64 [sp + 0x48] = a0\n  9718: a0 = u64 [sp]\n  9720: a2 = a0 + 0x20\n  9723: a4 = a2 <u a0\n  9726: a0 = u64 [sp + 0x10]\n  9729: a1 = a0 + a4\n  9732: s1 = a1 <u a0\n  9735: s1 = a4 if a4 == 0\n  9738: a0 = u64 [sp + 0x28]\n  9741: s1 = s1 + a0\n  9744: a4 = s1 <u a0\n  9747: a0 = u64 [sp + 0x50]\n  9750: a0 = a0 + a4\n  9753: u64 [sp + 0x50] = a0\n  9756: a3 = u64 [sp + 0x30]\n  9759: a3 = a3 + 0x1\n  9762: a4 = a3 <u 0x1\n  9765: a5 = u64 [sp + 0x20]\n  9768: a5 = a5 + a4\n  9771: a4 = a3 | a5\n  9774: a4 = a4 <u 0x1\n  9777: a0 = u64 [sp + 0x8]\n  9780: t1 = a0 + a4\n  9783: a0 = t1 <u a0\n  9786: a4 = u64 [sp + 0x18]\n  9789: a4 = a4 + a0\n  9792: u64 [sp + 0x58] = t0\n  9795: u64 [sp + 0x40] = t2\n  9798: u64 [sp + 0x38] = ra\n  9801: ra = a2\n  9803: t2 = a1\n  9805: t0 = s1\n  9807: jump @310\n      : @316 (gas: 6)\n  9810: sp = s0 + 0xffffffffffffff40\n  9814: ra = u64 [sp + 0xb8]\n  9818: s0 = u64 [sp + 0xb0]\n  9822: s1 = u64 [sp + 0xa8]\n  9826: sp = sp + 0xc0\n  9830: ret\n      : @317 (gas: 1)\n  9832: trap\n      : @318 [export #0: 'call'] (gas: 2)\n  9833: a0 = 0\n  9835: ra = 270, jump @21\n      : @319 [@dyn 135] [export #1: 'deploy'] (gas: 2)\n  9841: a0 = 0x1\n  9844: ra = 272, jump @21\n      : @320 [@dyn 136] (gas: 15)\n  9850: a2 = u64 [s1 + 0x68]\n  9853: a0 = u64 [a2 + 0x8]\n  9856: a1 = i32 [a2 + 0x10]\n  9859: a2 = u64 [a2]\n  9861: a0 = reverse a0\n  9863: a3 = a0 << 0x20\n  9866: a1 = reverse a1\n  9868: a1 = a1 >> 0x20\n  9871: a3 = a3 | a1\n  9874: a0 = a0 >> 0x20\n  9877: a1 = reverse a2\n  9879: a2 = a1 << 0x20\n  9882: a0 = a0 | a2\n  9885: a1 = a1 >> 0x20\n  9888: jump [t0]\n      : @321 (gas: 12)\n  9890: a0 = u64 [a3 + 0x18]\n  9893: a1 = u64 [a3 + 0x10]\n  9896: a2 = u64 [a3 + 0x8]\n  9899: a3 = u64 [a3]\n  9901: a0 = reverse a0\n  9903: a1 = reverse a1\n  9905: a2 = reverse a2\n  9907: a3 = reverse a3\n  9909: a4 = s1 + 0x7ff\n  9913: a4 = a4 + 0xb1\n  9917: a5 = a4 + 0x400\n  9921: jump [t0]\n      : @322 (gas: 17)\n  9923: a2 = u64 [s1 + 0x138]\n  9927: a0 = u64 [a2 + 0x8]\n  9930: a1 = i32 [a2 + 0x10]\n  9933: a2 = u64 [a2]\n  9935: a0 = reverse a0\n  9937: a3 = a0 << 0x20\n  9940: a1 = reverse a1\n  9942: a1 = a1 >> 0x20\n  9945: a3 = a3 | a1\n  9948: a0 = a0 >> 0x20\n  9951: a1 = reverse a2\n  9953: a2 = a1 << 0x20\n  9956: a0 = a0 | a2\n  9959: a1 = a1 >> 0x20\n  9962: a2 = s1 + 0x7ff\n  9966: a2 = a2 + 0xb1\n  9970: jump [t0]\n      : @323 (gas: 13)\n  9972: a3 = u64 [s1 + 0x138]\n  9976: a0 = u64 [a3 + 0x18]\n  9979: a1 = u64 [a3 + 0x10]\n  9982: a2 = u64 [a3 + 0x8]\n  9985: a3 = u64 [a3]\n  9987: a0 = reverse a0\n  9989: a1 = reverse a1\n  9991: a2 = reverse a2\n  9993: a3 = reverse a3\n  9995: a4 = s1 + 0x7ff\n  9999: a4 = a4 + 0xb1\n 10003: a5 = a4 + 0x200\n 10007: jump [t0]\n      : @324 (gas: 12)\n 10009: a5 = s1 + 0x100\n 10013: a1 = u64 [a5 + 0x38]\n 10016: a0 = u64 [a5 + 0x28]\n 10019: a3 = u64 [a5 + 0x20]\n 10022: a3 = a3 | a0\n 10025: a4 = 0x100000000\n 10035: a0 = 0xfffffffc\n 10045: a0 = a1 <u a0\n 10048: a2 = u64 [a5 + 0x30]\n 10051: a0 = 0 if a2 != 0\n 10053: a0 = 0 if a3 != 0\n 10055: jump [t0]\n      : @325 (gas: 8)\n 10057: a1 = sp + 0xffffffffffffffe0\n 10060: a1 = a1 & 0xffffffffffffffe0\n 10063: u64 [s1 + 0x138] = a1\n 10067: sp = a1\n 10069: i32 a0 = a0 + 0\n 10071: i32 a2 = a1 + 0\n 10073: a1 = 0x40\n 10076: jump [t0]\n      : @326 (gas: 11)\n 10078: a1 = a0 <u a1\n 10081: a3 = u64 [s1 + 0x30]\n 10084: a2 = a3 + a1\n 10087: a3 = a2 <u a3\n 10090: a3 = a1 if a1 == 0\n 10093: a1 = u64 [s1 + 0x20]\n 10096: a3 = a3 + a1\n 10099: a1 = a3 <u a1\n 10102: a4 = u64 [s1 + 0x28]\n 10105: a4 = a4 + a1\n 10108: jump [t0]\n      : @327 (gas: 10)\n 10110: a4 = s1 + 0x100\n 10114: a3 = u64 [a4 + 0x28]\n 10117: a2 = u64 [a4 + 0x30]\n 10120: a1 = u64 [a4 + 0x38]\n 10123: a0 = u64 [a4 + 0x20]\n 10126: a0 = a0 + 0xffffffffffffffdc\n 10129: a0 = a1 <u a0\n 10132: a0 = 0 if a2 != 0\n 10134: a0 = 0 if a3 != 0\n 10136: jump [t0]\n      : @328 (gas: 8)\n 10138: a0 = u64 [a2 + 0x8]\n 10141: a1 = i32 [a2 + 0x10]\n 10144: a2 = u64 [a2]\n 10146: a3 = reverse a0\n 10148: a0 = a3 << 0x20\n 10151: a1 = reverse a1\n 10153: a1 = a1 >> 0x20\n 10156: jump [t0]\n",
                "bytecode": {
                    "object": "50564d0000732f000000000000010700c1c000c0008003742079646165726c61657474696d6d6f63d66b99c6943a181c0ae246387b48661f8ee2084a5931bf0e8c33988effc9f6d2656d74696d6d6f63616d73696d20746e855c2fcad965655e2a3263f58b41d601756d26ce7aba4372a70bb3db4a9fc9ea2064696c61766e69696d6d6f63206f6e2000000004811410000000000400000012000000200000002e0000003400000041000000530000005e0000006d0000007a0000008a0000009a000000a5000000b7000000c200000063616c6c63616c6c5f646174615f636f707963616c6c5f646174615f6c6f616463616c6c5f646174615f73697a6563616c6c65726465706f7369745f6576656e746765745f696d6d757461626c655f646174616765745f73746f72616765686173685f6b656363616b5f3235367265665f74696d655f6c65667472657475726e5f646174615f636f707972657475726e5f646174615f73697a657365616c5f72657475726e7365745f696d6d757461626c655f646174617365745f73746f7261676576616c75655f7472616e73666572726564051102a6690463616c6ca671066465706c6f7906adb9808802a7ae6a00b201b40364046904ea04f5040f0550055b05ad05c005eb0500064b06000749079b076b08cb08ef09f409140a3e0a820a8b0aae0ae20ae70a070b310b630b6c0b8d0b9d0b030c160c1f0c880c4b0d710da80db10dd20d060e6b0ee50e1a0f820f8e0fa80f141019104e10531080101d11511199117512ec12f1120c13291334133a1347134d136f139d13fa1300142a1430145214b114b714d414f114fc1402150f15151537158915ce15351641167a161d17bc171f18a719fb19341a611a9f1aac1a041b0a1b7e1b8e1b6a1c9b1cd21c331d8d1dcd1d1f1e541ebd1e0a1fbf1fcb1f02200820242041204c205220ab20be20c7202221f9212f2248226c22c2220d234324e8248825d22571267a269511e87b10107b15087b163306700002390570000251051c3307a00003837783680a060139077000022003700002ac57108210108215088216951118320000390870000251089e053307a0000383770a0d2891059511f07b10087b15648964753308206497501002b0037c78017c797c7a027c7b03978808d4980897aa1097bb18d4ba0ad4a8087c79057c7a047c7b067c7c07979908d4a90997bb1097cc18d4cb0bd4b909979920d489027c79097c7a087c7b0a7c7c0b979908d4a90997bb1097cc18d4cb0bd4b9097c7a0d7c7b0c7c7c0e7c780f97aa08d4ba0a97cc10978818d4c808d4a808978820d498037c78117c7a107c7b127c7c13978808d4a80897bb1097cc18d4cb0bd4b8087c7a157c7b147c7c167c791797aa08d4ba0a97cc10979918d4c909d4a909979920d4890a7c78197c79187c7b1a7c7c1b978808d4980897bb1097cc18d4cb0bd4b8087c791d7c7b1c7c7c1e7c771f979908d4b90997cc10977718d4c707d49707977720d487076f776fa86f396f2a7b5a187b59107b58087b57821008821595111032009511d87b10207b15187b161082897b19088289087b1982851082861833082050100468026f686f59821a6faa821b086fbb787b18787a10787908787898bc38787c1f98bc30787c1e98bc28787c1d98bc20787c1c98bc18787c1b98bc10787c1a98bb08787b1998ab38787b1798ab30787b1698ab28787b1598ab20787b1498ab18787b1398ab10787b1298aa08787a11989a38787a0f989a30787a0e989a28787a0d989a20787a0c989a18787a0b989a10787a0a98990878790998893878790798893078790698892878790598892078790498891878790398891078790298880878780182102082151882161095112832009511a07b10587b15507b16489515608411e06476828718828910828a0882886f776f996faa6f887b18187b1a107b19087b17491138491130491128491120481140208318831a20831b403309ff33070a07821738821830821928821a206f776f886f996faa7b6a187b69107b68087b679551a082105882155082164895116032009511a07b10587b15509515608411e08272827a08827b108277188283828908828c108288186f746fbb6faa6f276f826fcc6f996f387b17187b1a107b1b087b147b18387b19307b1c287b12208318831a203309ff330b2033070a0e9551a08210588215509511603200951160ff7b1098007b1590007b1688009515a0008411e082ab7b1b3882ab087b1b3082ab107b1b2882aa187b1a20829a7b1a18829a087b1a10829a107b1a088299187b1964865010066582186f888219086f99821a106faa821b186fbb7b1b587b1a507b19487b18408218206f888219286f99821a306faa821b386fbb7b1b787b1a707b19687b18608379836a8317403308020a05955160ff8210980082159000821688009511a00032008b7910520931c8780883881f8488e05638000001253309780002390a780002ae8a093d087800020133088000028377c887073200009511f07b10087b158475010a03013d077400025105075010080950100a9c01951120ff7b10d8007b15d0007b16c8009515e0008411e04921b8004921b0004921a8004921a0008317a0000a0f018217b0008218b8008219a800821aa000d49808d4a707d487075207d000390674000297672098772095771f8477e09578a000d878077b1880007b17880094777b179000330740951880004921980050100ca9fc3307a000646850100e25ff8377646833090a010154161f8e009517603308a0005010104afb82177082197814080000000001000000d37808d49808987a2088aa01949a938a510a69821868821a607b1a407b18487b1750330780009518407b195850101243fc951720330840501014fefa821738821830821928821620d49707d48609d47909989920d48707977720d497075107280033088000028388330701286e330880000283883307012862330880000283883307012856646733085010166dfe8377330833090a0164173308800050101899fa821718821910821a08821b3e07b800033e09b000033e0aa800033e0ba000032860fa6467330850101a2ffe83783307330933001c0a0c280a330933001c0a0c01951108f8951700077b70f0007b75e8007b76e0009515f807951178fa8411e064169569ff079599b10049296802492960024929500280003307409568ff07958801034929580250101e48fb33077400027b67f80039077400025517040728c01895670010837720fb33080a02019569ff079599b10081978c02514723f7fce81c065147d58af9f4b50252471fc73823ef078267f80081775627230108288918977720987a2095670010492718f895670010492710f895670010492708f895670010492738f895670010492730f895670010492728f895680010492820f8049567ff079577419568ff079588219569ff07959901956b00107bba00f8501020711b8267f80081775617630728231895670010827758f87b67b00095670010827750f87b67b80095670010827748f87b67c00095670010827740f87b67d8009567e00733084050102210f9956c000782c7f80082c9f00082c8e80082cae0004926b8074926b0074926a807492ca000407b67d0007bc7d8007b69a0007bc9d0007b6898007bc8c8009567c0079568a0077b6ac8007bcac0005010249c198262f80081275527c40008288f1733003303330c95680001491838448267c8007b8728826b98007b8b208267a0007b87308264d000018e07826838018888c400858901db07098e378eca8128dac70ad4c307da790a978720520aee087b6418019877208269380195981fd89809c8900ad80a0bda990bc83b0bd83b09c8c909d4b909d8780894a89498520806280616492678014926700149266801826838017b6880017b6000017b6088017b6760017b6308017b6390019567a00195688001956960017b6c10017b6c9801501026061a956b000182ba3082b728d4a70982b81882bc20d4c808d48909989920d4a808978820d4980851080628c011826bb8018268b0018269a8017b6a3001826aa0017b6a40017b6948017b685001956840017b6b58017b6728017b6c2001501028c8f88264180182672801957220d8720882672001c88703d8730ada880a82673001c87a0ad87a08c8840482673801957840d8780b82670001c8b709d87907dabb07826b0801c8b707d8b70b826c1001c8bc0c7b6228017b6320017b6a30017b683801649064738262f800289efe49294804492940044929380449293004956700108377e0fc0a0f01956aff0795aab10095ab000482b74082b84882b93882ba30d49808d4a707d4870751070628c8158267f80081775617230728c3159517e08477e07b673001647195670010837700fd3308040a02956aff0795aab10095ab000482b76882b86082b95882ba507b670801826b30017bb7187b6800017bb8107b69f8007bb9087b6af0007bba33078000037b67380183777b67200133002a0a0433022c28d71c50122cd41c49294802959b00027bb8407bb7389568ff079588e1027bba30330750102e7ff79567ff079577b10049272802492720024927180264793307209568ff079588c1024929100250103055f73309780002390778000256173f0b200378000240017b6910019517e08479e07b69280164913307800002837783993308407b6718013300320a08826a280133023428231c826a28015012341c1c7bca88007bc980007bc8787bc7709567ff079577a1029568ff0795882105501036d7f7956aff0795aab10082a7000282a8080282a9f80182aaf001d49808d4a707d487075207c904826720013300380a0433023a28e41b50123ae11b49294801959b00017bb8407bb7389568ff079588e1017bba30330750103c8cf69567ff079577b10049272801492720014927180164793307209568ff079588c1014929100150103e62f682691001819756173f08480940019517e08477e07b67280164718379330840826718013300400a08826a280133024228421b826a28015012423b1b7bcaa8007bc9a0007bc898007bc790009567ff07957741058268300150104479f79567ff079577a101330840501046bcf4956aff0795aab10082a7080182a8000182a9f80082abf000d49707d48b09d47909989920d48707977720d4970751070628860e8267f0007ba7d0008267f8007ba7d800826700017ba7e0009568ff0795888101826708017ba7e80064b77b6b300150104890f58267200133004a0a048269380133024c28871b8269380150124c801bd4780298aa206f99979820d4a8089899203a0a1000029567ff079577b1007b7ac8003a0a1800023a0b2000023a0c2800027b7ac0007b7bb8004927a8007b7cb0007b79a0007b7898003308209569ff0795996101956aff0795aa41017b7290008267300150104ee7f633078268180133090a0c28b5114929e8034929e0034929d8034929d00395670010837780fc0a0f01956aff0795aab10095ab000382b7e00082b8e80082b9d80082bad000d49808d4a707d487075107062875128267f800817756172307287012956700108377a0fc3308040a0201956bff0795bbb10082b8000482b7080414090000000001000000d38909d47909988a2088aa01947a939a520a06283a1282b9f80382baf0037bba707bb9787bb880009568ff07958821017bb78800330750105048f49567ff079577b10049176849176049175864793307209568ff079588010149195050105222f4390878000256183f0b200378000240019517e08479e07b69380164913307800002837783993308403300540a08826a380133025628fd18826a3801501256f6187bca287bc9207bc8187bc7109567ff079577e1009568ff079588c104501058b3f49568ff079588b100828748956900017b97388287407b97308287387b97288287307b97209567ff079577c10033084050105a53f2956aff0795aab10082a72882a82082a91882ab10d49707d48b09d47909989920d48707977720d497075207240c82672001956800107b87a0f882672801956800107b87a8f8826730017ba79568ff079588a100826738017ba70864b77b6b380150105c28f33308208267380133006428a0f55147f3c37a2b0a289e104929c8034929c0034929b8034929b00395670010837760fc0a0f01956aff0795aab10095ab000382b7c00082b8c80082b9b80082bab000d49808d4a707d4870751070628a0108267f800817756170307289b109567ff079577810033084050105e74f195670010827798f87b67380195670010827790f87b67300195670010827788f87b67200195670010827780f87b672801501060ebf0956b000182b73882b820d4870782b828648a82b930d49808d47808988820d49707977720d487075207120b3a09a000033a08a800033807b00003956b0010492b78f8956b00107bb770f8956700107b7868f89568ff07958861956700107b7960f864a750106211f2330820826728015010648cf4837833092033070a0c019567ff0795778102330840501066b1f0956bff0795bbb10082b2e80195b80001828ce000828ad8008287d000d42a09d4c708d49808988820d4c909979920d4980852087a0a492bc001492bb801492bb0017b6a3001140a00000000a079c3089568ff07958861027bbac8017b6738017b6228017b6c20015010687ff150126a051751073a0a8387049569ff079599b1004929a8014929a00149299001209568ff0795884102492998017b6a28017b6b200150106c45f150126e30175107000a838724956aff0795aab100492a8801492a8001492a7001119568ff0795882102492a780150107013f195690001829a381407bcffffff00000000d87a07829830948782982894875107b50983a7443a080000023a09080002956bff0795bbb10095ba00017ba8687ba960140800000000000000647ba8589568ff0795880102492b50013300da0028b0f05328e400940e987a2049265807492650074926480749267807492670074926680749266007c4009567800795686007956940077b6a400750107254118267f8008177542723015a0e826798077b6760826790077b6758826788077b6750826780077b67489567200733084050107408ef956c000782c83882c93082ca2882cb204926f8064926f0064926e8064926e006207b68e8007bc8187b69f0007bc9107b6ae0007bca08956700079568e0067b6b707bcb5010769e0f8267f800817753272401e60d330c330a330b3302040195670010837740fb7b67f8008260708267e0007b6738018263f0008264e800018ec788282401858801dbc7088ea78eb9dab709d4ba07da78095209ec007b6c08017b6a10017b6b18017b62000183288267f8007b6430017b6328017b6020010a0201956a000182ac2082ab28d4bc0782a83082a938d49808d48707987720d4b808978820d4870752071d08956aff0795aab10082a2900295ab000282b8980082b7a00082baa8007b6ad8017b67d0017b68c8019568c0017b62c00164c77b6938015010781eef8264300182672001957220d8720882673801c88703d8730ada880a82672801c87a0ad87a08c8840482670001957820d8780b82670801c8b70cd87c07dabb0782691001c89707d8970b82691801c89b0b64207b63380164a36482647a28fefe33078000037b676883777b674033007a0a0433027c28911350127c8e134926d8067b68d0067b67c8069568c0067b6ac006330750107e87ee4926b8064926b0064926a8063307209568a0064926a006502080006bee330840330750208200e7f0502284001514330086000a083302880028b01350228800ad137bcac8007bc9c0007bc8b8007bc7b000956780069568ff079588610350208a0017ef956b000682b7900082b8980082b9880082ba8000d49808d4a707d48707520715019567600233084050208c00bdec95680002828b78828c70828a68828760d4ba09d4c708d49808988820d4c909979920d4980852089106492650024926480249264002140900000000a079c308956840027b6958027b6738017b6a30017b6b28017b6c200150208e009aed502290001f13510753068387044926380249263002492620022095682002492628027b6a28017b6b2001502092006aed502294005413510723068387244926180249261002492600020d95680002492608025020960042ed956a000182a9381407bcffffff00000000d8790782a830948782a82894875107e3058397443a086800024926e8017b68f8011408000000746e656d747b68f0019568e0014926e0013300da0028f0ec826740330098000a0433029a0028cc1150229a00c91149267806956900067b98707b9768956860067b9a60330750209c00c0ec492658064926500649264806330720956840064926400650209e00a3ec33084033075020a0001fef5022a2004d123300a4000a083302a60028e8115022a600e5117bcae8007bc9e0007bc8d8007bc7d000956720069568ff07958881035020a8004fed826870826af000d4a8078269e800826be000d4b909d49707987720d4a909979920d497075207f804826738067b673801826730067b672801826728067b673001826720067b672001956700065020aa00d1ea956b000682b71082b882b91882ba08826b2801d3b707826b2001d3b808d4870782683001d3a808826a3801d3a909d49808d487077b6738019567e0053308405020ac008cea8262f80595670005827cf0008279e000827ae800d4c908d42a07826b3801520b7603d47808988820d4c707977720d48707520754044926500549264805492640051407000000004d3b7543956840057b67580564977b69387b6a307b62287b6c205020ae005feb8268389587045022b0002311956c00057bc9087bc78267b0007bc7388267b8007bc7308267c0007bc7288267d8007bc7207bca1095672005956800057bcb185020b200740e330033033302330a8268389587447b67b800d88707826930c879087b68b000d89808da7708826720c878087b68a800d87807826828c887077b67c000826ca00082649800018e37880802858801db37088e278ea9daa709d4a207da7809826bd000520979037b62787b6a80007b6388007b6090008268c800d4c8077b649800d4b40bd4b7079877207b6ca000d4cb0a97aa20d4a707520744039567c0025020b4003de98267d802956800017b87188262d0028263c8028260c002330a33043309330c8267b8007b87288267b0007b87208267a8007b87308267c0007b8738018e4788a802858801db47088e9b64978ec9dacb097b671001d4c707da780952094701d4200782681801d48308d48707987720d42808978820d487075207bf027b63e8007b62f0007b6cf8007b6400017b6a08019567a00264087b60e0005020b6009ee895680001828b30828728d4b709828a38828c20d4ac08d48909989920d4b808978820d49808520872028262b8028268b0028269a8027b6a3801826aa0027b6a80027b6988027b689002956880027b6298027b6b30017b6728017b6c20015020b80075e9826828019587207b67d800d8870982672001c89703d8730ada990a82673001c8a700d8700a82673801c8a7077b6738018267e000957220d8720b8267e800c8b709d87907dabb078268f000c88707d8870b82681801c8b8087b681801826a080195aa0188ab0182640001c8b404d44a0b88bb0182681001c88b0bd88b08826cf800c88c0c8268d8007b6828017b6320017b60300164206493647264b9289efe8267b8009578407b683801d878098267b000c89703d8730ada990a8267a800c8a704d8740a8267c000c8a7077b67c0008267c800957020d8700b82679800c8b702d87207dabb078268a000c8780cd88c0b8268d000c8b8087b68d00082699000959901889b01826a8800c8ba0ad4a90b88bb01826778c87b0bd87b0882678000c88707826838017b68b8007b63b00064a37b64a800647a7b60c8006490642464b22860fdd47808988820d4c707977720d487075207e2004926d0054926c8054926c005140700000000a079c3089568c0057b67d80564977b69387b6a307b62287b6c205020ba00ede7826838826728826a20d47a0a140b00000000010000001407fcffffff00000000d87807826930949794a7510782008387044926b8054926b0054926a005209568a0054926a8057b6a38017b6b30015020bc0099e7826a3801826930826838826730019577dcd87807949794a75107408387244926980549269005492680051395688005492688055020be0060e7826a381407bcffffff00000000d87a07826830948782683801948752073e05008268389587c4005022c000030d826848956c00047bc8e0007bc7c0008267507bc7e8008267587bc7f0007bc9c8008267607bc7f8007bcad0009567e0049568c0047bcbd8005020c2004f0a9567a0048268705020c400aee5826720826828d487071408fcfeffff00000000826938d8890882693094989478510887956c000482c9b80082c8b00082caa80082cba000826738837704017bcb80007bca88007bc89000956880047bc998005020c60090e65020c800fce43a08a000037b6838013a08b000037b6830013a07a800037b6728010a09826728016f77977820826930016f99989920d49808987720826938016f99979a20d4a707989920826a687aa9107ba7087ba89567ff079577b10049270803492700034927f8024927f002330824018267385020ca009de87b6730013308208267385020cc008de849263801209568ff079588b10048281003204928480349284003492838034928300382686897882098882014090000000018000000d498029568ff079588a1039788209888209569ff079599e103979920d4890a8268300197882098882014090000000024010000d4980b9777209877209568ff079588c103978820d4780c3308ff3309ff64270a01520730020a0b015517200b0a0b7b6738010182673801956a00047ba7208267387ba74049263001492628048267307ba748492630048267207ba7504926380495674004956820048269287ba9585020ce00ce04826a30018ea782683801888820858801dba7088ea78ea9daa709d4aa07da780951094c03956700048268385020d000bfe3956b000482b71882b81082b982ba08d4780b889c0294ac94bc510c3603d49808d4a707d4870752073103956760033308405020d20088e3956b000382b97882ba7082b76882b860956b00017bb7307bb928d497077bb838d4a808d478089888207bba20d4a707977720d4870752074cfd492650034926480349264003140700000000a079c308956840037b675803826738015020d40061e4956a000182a72882a920d47909140700000000010000007ba7201407fcffffff0000000082a838d8780782a83094877ba92894975107ecfc826738018377044926380349263003492620032095682003492628035020d60007e4956900018297209577dc829838d87807829830948782982894875107acfc826738018377244926180349261003492600030d95680003492608035020d800c7e31407bcffffff0000000095690001829838d8780782983094878298289487510768fc826738018377443a086000024926e8027b68f8021408000000666f6f72707b68f0029568e0024926e0025020da0075e3330864826738013300e40028ebe53308800002838833070133090a0c280c838833070133090a0c01956760043308405020dc0006e2956800048287787b6730018287707b6728018287687b6720018287607b6738010a0b01956b000182b83082b920d4980882ba2882b938d4a909d48909989920d4a808978820d498085208b7fb9878205208b0fb64787b67280183777b673001826738015020de005ee59568ff079588b100826928017a895003837795680010838800fc33090a0a019567ff079577b1008177500382683001ac8767fb0a0b01647898772052075bfb826738017b6830015020e00011e58378816930013307010a0c33088000022823ff3308800002281bff33088000022813ff3308800002280bff33088000022803ff330880000228fbfe330880000228f3fe330880000228ebfe330880000228e3fe330880000228dbfe330880000228d3fe330880000228cbfe330880000228c3fe330880000228bbfe330880000228b3fe83a7443a083000023a09380002956a00057ba8787ba970140800000000006863747ba86895686005492660055020e200d5e13308648267385020e40050e483783307013309640a0c01330880000283883307010a0c33088000022856fe3308800002284efe8267403300e6000a043302e800287b065022e80078064926f8037b68f0037b67e8039568e0037b6ae00333075020ea0070e14926d8034926d0034926c8033307209568c0034926c0035020ec0053e133084033075020ee00cfe35022f000fd060a08826a380182a71882a81082a90882aa6f776f886f996faa956bff0795bbb10095bc00037bca88007bc980007bc8787bc770492ba803492ba003492b9803492b90039567ff07957721049568ff07958841045020f2005ce28267403300f4000a048269683302f60028df068269685022f600d906d4780298aa206f98978920d4a909988820492698033a0a4000023a0b4800023a0c5000023a075800027b6ab803956a00037babb0007baca8007ba7a0007ba890007ba988009569a003956a80037b628003330733085020f8004ee233088000028388330733090a0c2818fd951170ff7b1088007b1580007b1678951590008411f064728289827408828c088273959a1fd89a00c80c0984aae07b1308c8a303d8a30bc8490ac8ba0ad39a06d89a07da6b07822b18d8c90c828610822210828818da000cc86c0cd86c06c82c09c89707d8c90cd89709c8b808c86808c8c808c8980c8ec88e79dbc809d4c7088ea6db8906520657821808d88308d34a09d84a06da9806d82708d3bc09d8bc0bda980bd32708d49808da860b520b307b13507b1a587b17603307409518507b1c685020fa009bdf955170ff8210880082158000821678951190003200491140491138491130140700000000717b484e9518307b174833075020fc0065df491128491120491110413307049518104911185020fe004cdf390878000256183f0b2003780002400133088000028388330701330924330000010a0c019511a0fe7b1058017b1550017b164801951560018411e0829a087b1a68829a7b1a8800829a187b1a98008299107b1990008286188289107b1980008289087b197882887b18707b1718951700013308405020020198dd821718018218100182190801821a00014921d8004921d0004921c8004921c000407b17287b17f8007b18587b18f0007b19507b19e8009517e0009518c0007b1a207b1ae000502004012bfe821470821b78821c80006463954940d84907c87b0ad8ba08da7708c8c808d8c807c867077b194882168800d89602821968d39a067b1a40d8a909da620982109000d88002821a9800d3a7067b1730d87a0ada620a7b1838d30807d46707db7a09520968018217207b1798008216507b1688008210587b10688217287b17900001821748d87407821940d39b08d89b09da8709821738d87c02821a30d3a308d8a30ada820ad3c707d48707da790a510af000d4c4077b13607b1b78d43b08d487079877207b1c8000d4c808978820d487075207f7008348831720017b14700a020182166882179800d4670982189000821a8800d4a808d48909989920d46808978820d498085208c300821b20018218280182193001821a38017b1ab8007b19b0007b18a8009518a0007b1ba0007b1798005020060151dd82179800957220d8720882178800c88709d8790ada880ac86a0ad86a0882179000c887077b179000821770957820d8780b821678c8b60cd86c06dabb0682178000c87606d8760b821760c8b703648464cb646c7b1298007b1988007b1a6882105882165028e6fe8217188218207b787b76087b70108218287b78189551a0fe82105801821550018216480195116001320000330880000283883307013309330008010a0c01951140ff7b10b8007b15b0007b16a8009515c0008411f08289187b19488289107b19388289087b194082887b18588278187b18508272108274088270330a330c3303330b018ec788a802858801dbc7088e378eb9dab709d4b307da780952090d017b13087b1b188216387b1c207b1a30d420077b1410821950d49409d497079877207b1228d42909979920d497075207f2009517800064087b1050200a01d2da821758d46709821848821a40d4a808d48909989920d46808978820d498085208c200821b98008218900082198800821a80007b1a607b19687b18709518607b1b787b175850200c01c2db821758957220d87209821740c89704d8740ada990ac8a600d86009821748c897077b17488217957920d8790b821710c8b708d87806dabb06821728c87606d8760b821750c8b7077b1750821a3095aa0188ab01821c20c8bc0cd4ca0b88bb01821708c8b703d87307821b18c87b0b7b12587b14407b103864906484646228defe955140ff8210b8008215b0008216a8009511c000320000330750200e01dfdd33070150201001d6dd82696882970881981082996f77977a206f88988820d48a0a9877206f98978920d49707988820320282a71882a81082a90882aa6f776f886f996faa956bff0795bbb10095bc000432028269380182970881981082996f77977a206f88988820d48a0a9877206f98978920d497079888209569ff079599b1003202826a380182a71882a81082a90882aa6f776f886f996faa956bff0795bbb10095bc00023202956c000182c83882c72882ca20d47a0a140b00000000010000001407fcffffff00000000d8780782c930949794a732029518e08488e07b6838016481837783893308403202d88708826a30c88a09d8a90ada880a826820c88a0ad88a08826b28c88b0b3202956b000182ba2882b93082b83882b7209577dcd87807949794a7320282970881981082996f7a97a7206f889888203202490a21a11a4292d210a1925429a42449922449922449922449922449922449922449922449922449922449922449aa9294529294942454a5242549922449922449922449922449922449922449922449499294a4aa24254994a492a42a494992922425294955559292a42495244544444a92242549525129a5244929a524a9a488882849128490309426a521112222221111d18888241192241251242244a16a4884248024a924492209494892244992a1144aa154a1aa08490a218454a852a5111111912222824444081122113522020202a290242222222222224224128908512422222222222212222222224244444444448842aa884824128b48aa24894824499224954444444444444444882449922449444444444444884822492489249244128988a8484444442322499224512489225244244944229128449192109144a410111125224208118c240a95489144884822224244444492889484882422858888281111a2c8242a9122891011111121222122222249922411111111114588144984a424212242081111118988880845252222a21111119124892211694444004952494412115188485222124204932854522411922422224424922449444244922449928888888822224548248144444434222222922451242221222222222222449294244922841011111189282442a9110911111191244922222280888888102211112122224288444484880891009252248488480248444482444444041111210a2291482412224922224422918814a2a08a884844c422a924111151444423499224494444444444441421228924912492481249a4a8125252122222a210118908521044912022222282888848129120922449924444041011111104918810111104918810114402484a9110114044441245828824521011890852104491202222228244229224898888888808222591482291242241444424114992888800224a922009224522914822125425912492249244c4925492884444249244928820221151158944224b522592482449121111114510499224492222222222222282482492441289482249249188249244128988a84a2412492289442491249248441249924422a228aa24492222028828498224092080a422112122228824924a224244900092a29808121189442422228248902480249588884844444410840811a22851922849922222222241244188081111490248441291441240928824e9681423924424914444124491a492442488a42415492212449244922449928888002222882401248024a588448488209224a588448488208048528a488808202282442494aad44810894422d1489224491289a2882022a2881a11112d11111429242424242424242424242424242424214412402282242869288584248a041111511011890852101449aa8a8888242222222248944882a42411420811111111111584aa44442295942449922449922449922495942449922449922409222251920092822492042182a1241a1111498a442289a424124444444448241211892089922449124992442249922412892431499224499244922491248a34918824492222222222228824922491489224912455449224254944443494a211119124494a9254b52495249224499224494405499224494444244912244992244949922449922449922449aa4444440b1224a994a42425a92a228aa4529292441449aa8a882249020820a992a8529224495224495225951200"
                },
                "methodIdentifiers": {
                    "commit(uint256)": "f4f98ad5",
                    "commitments(address)": "e8fcf723",
                    "prove(uint256[2],uint256[2][2],uint256[2],uint256[1])": "2338c71f",
                    "verifier()": "2b7ac3f3"
                }
            },
            "hash": "6b5d7cf79a54c6149d8c7369e73fa9c0d787759b326df0c9f8bf2bbbf845a087",
            "factoryDependencies": {}
        }
    }
}